{
  "contractName": "Marketplace",
  "abi": [
    {
      "inputs": [],
      "stateMutability": "nonpayable",
      "type": "constructor"
    },
    {
      "anonymous": false,
      "inputs": [
        {
          "indexed": false,
          "internalType": "uint256",
          "name": "id",
          "type": "uint256"
        },
        {
          "indexed": false,
          "internalType": "uint256",
          "name": "price",
          "type": "uint256"
        },
        {
          "indexed": false,
          "internalType": "string",
          "name": "energy",
          "type": "string"
        },
        {
          "indexed": false,
          "internalType": "address payable",
          "name": "owner",
          "type": "address"
        },
        {
          "indexed": false,
          "internalType": "bool",
          "name": "purchased",
          "type": "bool"
        }
      ],
      "name": "ProductCreated",
      "type": "event"
    },
    {
      "anonymous": false,
      "inputs": [
        {
          "indexed": false,
          "internalType": "uint256",
          "name": "id",
          "type": "uint256"
        },
        {
          "indexed": false,
          "internalType": "uint256",
          "name": "price",
          "type": "uint256"
        },
        {
          "indexed": false,
          "internalType": "string",
          "name": "energy",
          "type": "string"
        },
        {
          "indexed": false,
          "internalType": "address payable",
          "name": "owner",
          "type": "address"
        },
        {
          "indexed": false,
          "internalType": "bool",
          "name": "purchased",
          "type": "bool"
        }
      ],
      "name": "ProductPurchased",
      "type": "event"
    },
    {
      "inputs": [],
      "name": "owner",
      "outputs": [
        {
          "internalType": "address",
          "name": "",
          "type": "address"
        }
      ],
      "stateMutability": "view",
      "type": "function"
    },
    {
      "inputs": [],
      "name": "productCount",
      "outputs": [
        {
          "internalType": "uint256",
          "name": "",
          "type": "uint256"
        }
      ],
      "stateMutability": "view",
      "type": "function"
    },
    {
      "inputs": [],
      "name": "productCount_buyer",
      "outputs": [
        {
          "internalType": "uint256",
          "name": "",
          "type": "uint256"
        }
      ],
      "stateMutability": "view",
      "type": "function"
    },
    {
      "inputs": [
        {
          "internalType": "uint256",
          "name": "",
          "type": "uint256"
        }
      ],
      "name": "products",
      "outputs": [
        {
          "internalType": "uint256",
          "name": "id",
          "type": "uint256"
        },
        {
          "internalType": "uint256",
          "name": "price",
          "type": "uint256"
        },
        {
          "internalType": "string",
          "name": "energy",
          "type": "string"
        },
        {
          "internalType": "address payable",
          "name": "owner",
          "type": "address"
        },
        {
          "internalType": "bool",
          "name": "purchased",
          "type": "bool"
        }
      ],
      "stateMutability": "view",
      "type": "function"
    },
    {
      "inputs": [
        {
          "internalType": "uint256",
          "name": "",
          "type": "uint256"
        }
      ],
      "name": "products_buyer",
      "outputs": [
        {
          "internalType": "uint256",
          "name": "id",
          "type": "uint256"
        },
        {
          "internalType": "uint256",
          "name": "price",
          "type": "uint256"
        },
        {
          "internalType": "string",
          "name": "energy",
          "type": "string"
        },
        {
          "internalType": "address payable",
          "name": "owner",
          "type": "address"
        }
      ],
      "stateMutability": "view",
      "type": "function"
    },
    {
      "inputs": [
        {
          "internalType": "uint256",
          "name": "_price",
          "type": "uint256"
        },
        {
          "internalType": "string",
          "name": "_energy",
          "type": "string"
        }
      ],
      "name": "createProduct",
      "outputs": [],
      "stateMutability": "nonpayable",
      "type": "function"
    },
    {
      "inputs": [
        {
          "internalType": "uint256",
          "name": "_price",
          "type": "uint256"
        },
        {
          "internalType": "string",
          "name": "_energy",
          "type": "string"
        }
      ],
      "name": "createProduct_buyer",
      "outputs": [],
      "stateMutability": "nonpayable",
      "type": "function"
    },
    {
      "inputs": [
        {
          "internalType": "uint256",
          "name": "_id",
          "type": "uint256"
        }
      ],
      "name": "purchaseProduct",
      "outputs": [],
      "stateMutability": "payable",
      "type": "function"
    }
  ],
  "bytecode": "0x60806040526000600155600060025534801561001a57600080fd5b50336000806101000a81548173ffffffffffffffffffffffffffffffffffffffff021916908373ffffffffffffffffffffffffffffffffffffffff16021790555061143c8061006a6000396000f3fe60806040526004361061007a5760003560e01c80635b53308e1161004e5780635b53308e1461012d5780637acc0b20146101585780638da5cb5b14610199578063e0f6ef87146101c45761007a565b806272d74f1461007f5780630a01841d146100a857806310255e9e146100d157806338e76a0314610111575b600080fd5b34801561008b57600080fd5b506100a660048036038101906100a19190610ccc565b6101ef565b005b3480156100b457600080fd5b506100cf60048036038101906100ca9190610ccc565b610331565b005b3480156100dd57600080fd5b506100f860048036038101906100f39190610ca3565b610508565b604051610108949392919061110c565b60405180910390f35b61012b60048036038101906101269190610ca3565b6105e0565b005b34801561013957600080fd5b50610142610a68565b60405161014f91906110f1565b60405180910390f35b34801561016457600080fd5b5061017f600480360381019061017a9190610ca3565b610a6e565b604051610190959493929190611158565b60405180910390f35b3480156101a557600080fd5b506101ae610b59565b6040516101bb9190610ff6565b60405180910390f35b3480156101d057600080fd5b506101d9610b7d565b6040516101e691906110f1565b60405180910390f35b600082116101fc57600080fd5b600081511161020a57600080fd5b6002600081548092919061021d90611308565b9190505550604051806080016040528060025481526020018381526020018281526020013373ffffffffffffffffffffffffffffffffffffffff16815250600460006002548152602001908152602001600020600082015181600001556020820151816001015560408201518160020190805190602001906102a0929190610b83565b5060608201518160030160006101000a81548173ffffffffffffffffffffffffffffffffffffffff021916908373ffffffffffffffffffffffffffffffffffffffff1602179055509050507fb535b120dde0a9ea70c41327c9c7e5fdc43f9b41ca0641774e37befd7eb73da36002548383336000604051610325959493929190611158565b60405180910390a15050565b60008211610374576040517f08c379a000000000000000000000000000000000000000000000000000000000815260040161036b906110d1565b60405180910390fd5b60008151116103b8576040517f08c379a00000000000000000000000000000000000000000000000000000000081526004016103af906110b1565b60405180910390fd5b600160008154809291906103cb90611308565b91905055506040518060a0016040528060015481526020018381526020018281526020013373ffffffffffffffffffffffffffffffffffffffff1681526020016000151581525060036000600154815260200190815260200160002060008201518160000155602082015181600101556040820151816002019080519060200190610457929190610b83565b5060608201518160030160006101000a81548173ffffffffffffffffffffffffffffffffffffffff021916908373ffffffffffffffffffffffffffffffffffffffff16021790555060808201518160030160146101000a81548160ff0219169083151502179055509050507fb535b120dde0a9ea70c41327c9c7e5fdc43f9b41ca0641774e37befd7eb73da360015483833360006040516104fc959493929190611158565b60405180910390a15050565b6004602052806000526040600020600091509050806000015490806001015490806002018054610537906112d6565b80601f0160208091040260200160405190810160405280929190818152602001828054610563906112d6565b80156105b05780601f10610585576101008083540402835291602001916105b0565b820191906000526020600020905b81548152906001019060200180831161059357829003601f168201915b5050505050908060030160009054906101000a900473ffffffffffffffffffffffffffffffffffffffff16905084565b6000600360008381526020019081526020016000206040518060a00160405290816000820154815260200160018201548152602001600282018054610624906112d6565b80601f0160208091040260200160405190810160405280929190818152602001828054610650906112d6565b801561069d5780601f106106725761010080835404028352916020019161069d565b820191906000526020600020905b81548152906001019060200180831161068057829003601f168201915b505050505081526020016003820160009054906101000a900473ffffffffffffffffffffffffffffffffffffffff1673ffffffffffffffffffffffffffffffffffffffff1673ffffffffffffffffffffffffffffffffffffffff1681526020016003820160149054906101000a900460ff16151515158152505090506000816060015190506000826000015111801561073c5750600154826000015111155b61077b576040517f08c379a000000000000000000000000000000000000000000000000000000000815260040161077290611071565b60405180910390fd5b81602001513410156107c2576040517f08c379a00000000000000000000000000000000000000000000000000000000081526004016107b990611051565b60405180910390fd5b816080015115610807576040517f08c379a00000000000000000000000000000000000000000000000000000000081526004016107fe90611011565b60405180910390fd5b3373ffffffffffffffffffffffffffffffffffffffff168173ffffffffffffffffffffffffffffffffffffffff161415610876576040517f08c379a000000000000000000000000000000000000000000000000000000000815260040161086d90611031565b60405180910390fd5b33826060019073ffffffffffffffffffffffffffffffffffffffff16908173ffffffffffffffffffffffffffffffffffffffff16815250506001826080019015159081151581525050816003600085815260200190815260200160002060008201518160000155602082015181600101556040820151816002019080519060200190610903929190610b83565b5060608201518160030160006101000a81548173ffffffffffffffffffffffffffffffffffffffff021916908373ffffffffffffffffffffffffffffffffffffffff16021790555060808201518160030160146101000a81548160ff02191690831515021790555090505060008173ffffffffffffffffffffffffffffffffffffffff163460405161099490610fe1565b60006040518083038185875af1925050503d80600081146109d1576040519150601f19603f3d011682016040523d82523d6000602084013e6109d6565b606091505b5050905080610a1a576040517f08c379a0000000000000000000000000000000000000000000000000000000008152600401610a1190611091565b60405180910390fd5b7f48c5f08d17b2433fade7b1a3f2f0820b855cd7b162574eb5ea51c3670972f1388484602001518560400151336001604051610a5a959493929190611158565b60405180910390a150505050565b60025481565b6003602052806000526040600020600091509050806000015490806001015490806002018054610a9d906112d6565b80601f0160208091040260200160405190810160405280929190818152602001828054610ac9906112d6565b8015610b165780601f10610aeb57610100808354040283529160200191610b16565b820191906000526020600020905b815481529060010190602001808311610af957829003601f168201915b5050505050908060030160009054906101000a900473ffffffffffffffffffffffffffffffffffffffff16908060030160149054906101000a900460ff16905085565b60008054906101000a900473ffffffffffffffffffffffffffffffffffffffff1681565b60015481565b828054610b8f906112d6565b90600052602060002090601f016020900481019282610bb15760008555610bf8565b82601f10610bca57805160ff1916838001178555610bf8565b82800160010185558215610bf8579182015b82811115610bf7578251825591602001919060010190610bdc565b5b509050610c059190610c09565b5090565b5b80821115610c22576000816000905550600101610c0a565b5090565b6000610c39610c34846111e3565b6111b2565b905082815260208101848484011115610c5157600080fd5b610c5c848285611294565b509392505050565b600082601f830112610c7557600080fd5b8135610c85848260208601610c26565b91505092915050565b600081359050610c9d816113ef565b92915050565b600060208284031215610cb557600080fd5b6000610cc384828501610c8e565b91505092915050565b60008060408385031215610cdf57600080fd5b6000610ced85828601610c8e565b925050602083013567ffffffffffffffff811115610d0a57600080fd5b610d1685828601610c64565b9150509250929050565b610d298161124c565b82525050565b610d388161123a565b82525050565b610d478161125e565b82525050565b6000610d5882611213565b610d628185611229565b9350610d728185602086016112a3565b610d7b816113de565b840191505092915050565b6000610d93602283611229565b91507f50726f647563742068617320616c7265616479206265656e207075726368617360008301527f65640000000000000000000000000000000000000000000000000000000000006020830152604082019050919050565b6000610df9601a83611229565b91507f42757965722063616e6e6f74206265207468652073656c6c65720000000000006000830152602082019050919050565b6000610e39602b83611229565b91507f4e6f7420656e6f75676820457468657220746f20636f7665722074686520707260008301527f6f647563742070726963650000000000000000000000000000000000000000006020830152604082019050919050565b6000610e9f60008361121e565b9150600082019050919050565b6000610eb9601283611229565b91507f496e76616c69642070726f6475637420494400000000000000000000000000006000830152602082019050919050565b6000610ef9601083611229565b91507f5472616e73666572206661696c65642e000000000000000000000000000000006000830152602082019050919050565b6000610f39602083611229565b91507f456e65726779206d7573742062652067726561746572207468616e207a65726f6000830152602082019050919050565b6000610f79602783611229565b91507f50726f64756374207072696365206d757374206265206772656174657220746860008301527f616e207a65726f000000000000000000000000000000000000000000000000006020830152604082019050919050565b610fdb8161128a565b82525050565b6000610fec82610e92565b9150819050919050565b600060208201905061100b6000830184610d2f565b92915050565b6000602082019050818103600083015261102a81610d86565b9050919050565b6000602082019050818103600083015261104a81610dec565b9050919050565b6000602082019050818103600083015261106a81610e2c565b9050919050565b6000602082019050818103600083015261108a81610eac565b9050919050565b600060208201905081810360008301526110aa81610eec565b9050919050565b600060208201905081810360008301526110ca81610f2c565b9050919050565b600060208201905081810360008301526110ea81610f6c565b9050919050565b60006020820190506111066000830184610fd2565b92915050565b60006080820190506111216000830187610fd2565b61112e6020830186610fd2565b81810360408301526111408185610d4d565b905061114f6060830184610d20565b95945050505050565b600060a08201905061116d6000830188610fd2565b61117a6020830187610fd2565b818103604083015261118c8186610d4d565b905061119b6060830185610d20565b6111a86080830184610d3e565b9695505050505050565b6000604051905081810181811067ffffffffffffffff821117156111d9576111d86113af565b5b8060405250919050565b600067ffffffffffffffff8211156111fe576111fd6113af565b5b601f19601f8301169050602081019050919050565b600081519050919050565b600081905092915050565b600082825260208201905092915050565b60006112458261126a565b9050919050565b60006112578261126a565b9050919050565b60008115159050919050565b600073ffffffffffffffffffffffffffffffffffffffff82169050919050565b6000819050919050565b82818337600083830152505050565b60005b838110156112c15780820151818401526020810190506112a6565b838111156112d0576000848401525b50505050565b600060028204905060018216806112ee57607f821691505b6020821081141561130257611301611380565b5b50919050565b60006113138261128a565b91507fffffffffffffffffffffffffffffffffffffffffffffffffffffffffffffffff82141561134657611345611351565b5b600182019050919050565b7f4e487b7100000000000000000000000000000000000000000000000000000000600052601160045260246000fd5b7f4e487b7100000000000000000000000000000000000000000000000000000000600052602260045260246000fd5b7f4e487b7100000000000000000000000000000000000000000000000000000000600052604160045260246000fd5b6000601f19601f8301169050919050565b6113f88161128a565b811461140357600080fd5b5056fea2646970667358221220c6dbe41cfe6f6033d7a7ce477fd6c5e40833580266056b89debbf96c08e3f39f64736f6c63430008000033",
  "immutableReferences": {},
  "source": "// SPDX-License-Identifier: MIT\r\npragma solidity ^0.8.0;\r\n//this is the contract p2pET Descentralized\r\ncontract Marketplace {\r\n    address public owner;\r\n    /* string public name; */\r\n    uint public productCount = 0;\r\n    uint public productCount_buyer = 0;\r\n    mapping(uint => Product) public products;\r\n    mapping(uint => ProductBuyer) public products_buyer;\r\n\r\n    struct Product {\r\n        uint id;\r\n        //string name;\r\n        uint price;\r\n        string energy;\r\n        address payable owner;\r\n        bool purchased;\r\n    }\r\n\r\n    struct ProductBuyer{\r\n        uint id;\r\n        uint price;\r\n        string energy;\r\n        address payable owner;\r\n    }\r\n\r\n    event ProductCreated(\r\n        uint id,\r\n        uint price,\r\n        string energy,\r\n        address payable owner,\r\n        bool purchased\r\n    );\r\n\r\n    event ProductPurchased(\r\n        uint id,\r\n        uint price,\r\n        string energy,\r\n        address payable owner,\r\n        bool purchased\r\n    );\r\n\r\n    constructor() {\r\n        /* name = \"Dapp University Marketplace\"; */\r\n        owner = msg.sender;\r\n    }\r\n\r\n    function createProduct(uint _price, string memory _energy) public {\r\n        // Requiere un nombre vlido\r\n        //require(bytes(_name).length > 0, \"Product name cannot be empty\");\r\n        // Requiere un precio vlido\r\n        require(_price > 0, \"Product price must be greater than zero\");\r\n        // Requiere valor de energia valido\r\n        require(bytes(_energy).length > 0, \"Energy must be greater than zero\");\r\n        // Incrementa el contador de productos\r\n        productCount++;\r\n        // Crea el producto\r\n        products[productCount] = Product(\r\n            productCount, _price, _energy, payable(msg.sender), false\r\n        );\r\n        // Dispara el evento de creacin de producto\r\n        emit ProductCreated(\r\n            productCount,\r\n            _price, _energy, payable(msg.sender), false\r\n        );\r\n    }\r\n\r\n    function createProduct_buyer(uint _price, string memory _energy) public {\r\n        // Require a valid price\r\n        require(_price > 0);\r\n        // Require a valid energy value\r\n        require(bytes(_energy).length > 0);\r\n        // Increment product count\r\n        productCount_buyer++;\r\n        // Create the product\r\n        products_buyer[productCount_buyer] = ProductBuyer(\r\n            productCount_buyer,\r\n            _price,\r\n            _energy,\r\n            payable(msg.sender)\r\n        );\r\n        // Trigger an event\r\n        emit ProductCreated(\r\n            productCount_buyer,\r\n            \r\n            _price,\r\n            _energy,\r\n            payable(msg.sender),\r\n            false\r\n        );\r\n    }\r\n\r\n    function purchaseProduct(uint _id) public payable {\r\n        // Obtiene el producto\r\n        Product memory _product = products[_id];\r\n        // Obtiene al vendedor\r\n        address payable _seller = _product.owner;\r\n        // Asegura que el producto tenga un ID vlido\r\n        require(_product.id > 0 && _product.id <= productCount, \"Invalid product ID\");\r\n        // Requiere que haya suficiente Ether en la transaccin\r\n        require(msg.value >= _product.price, \"Not enough Ether to cover the product price\");\r\n        // Asegura que el producto no haya sido comprado\r\n        require(!_product.purchased, \"Product has already been purchased\");\r\n        // Requiere que el comprador no sea el vendedor\r\n        require(_seller != msg.sender, \"Buyer cannot be the seller\");\r\n        // Transfiere la propiedad al comprador\r\n        _product.owner = payable(msg.sender);\r\n        // Marca como comprado\r\n        _product.purchased = true;\r\n        // Actualiza el producto\r\n        products[_id] = _product;\r\n        // Paga al vendedor transfirindole Ether\r\n        (bool success, ) = _seller.call{value: msg.value}(\"\");\r\n        require(success, \"Transfer failed.\");\r\n        // Dispara el evento de compra del producto\r\n        emit ProductPurchased(\r\n            _id, _product.price, \r\n            _product.energy, payable(msg.sender), true);\r\n    }\r\n}\r\n\r\n",
  "sourcePath": "C:\\Users\\franf\\OneDrive - Universidad Tcnica Federico Santa Mara\\A 2024-02 TESIS\\Blockchain desarrollo\\Tesis V2\\p2p\\contracts\\Marketplace.sol",
  "compiler": {
    "name": "solc",
    "version": "0.8.0+commit.c7dfd78e.Emscripten.clang"
  },
  "schemaVersion": "3.4.16",
  "updatedAt": "2024-10-23T15:00:09.841Z",
  "devdoc": {
    "kind": "dev",
    "methods": {},
    "version": 1
  },
  "userdoc": {
    "kind": "user",
    "methods": {},
    "version": 1
  }
}