{
  "contractName": "Marketplace",
  "abi": [
    {
      "inputs": [],
      "stateMutability": "nonpayable",
      "type": "constructor"
    },
    {
      "anonymous": false,
      "inputs": [
        {
          "indexed": false,
          "internalType": "uint256",
          "name": "id",
          "type": "uint256"
        },
        {
          "indexed": false,
          "internalType": "uint256",
          "name": "price",
          "type": "uint256"
        },
        {
          "indexed": false,
          "internalType": "string",
          "name": "energy",
          "type": "string"
        },
        {
          "indexed": false,
          "internalType": "address payable",
          "name": "owner",
          "type": "address"
        },
        {
          "indexed": false,
          "internalType": "bool",
          "name": "purchased",
          "type": "bool"
        }
      ],
      "name": "ProductCreated",
      "type": "event"
    },
    {
      "anonymous": false,
      "inputs": [
        {
          "indexed": false,
          "internalType": "uint256",
          "name": "id",
          "type": "uint256"
        },
        {
          "indexed": false,
          "internalType": "uint256",
          "name": "price",
          "type": "uint256"
        },
        {
          "indexed": false,
          "internalType": "string",
          "name": "energy",
          "type": "string"
        },
        {
          "indexed": false,
          "internalType": "address payable",
          "name": "owner",
          "type": "address"
        },
        {
          "indexed": false,
          "internalType": "bool",
          "name": "purchased",
          "type": "bool"
        }
      ],
      "name": "ProductPurchased",
      "type": "event"
    },
    {
      "anonymous": false,
      "inputs": [
        {
          "indexed": false,
          "internalType": "uint256",
          "name": "id",
          "type": "uint256"
        },
        {
          "indexed": false,
          "internalType": "uint256",
          "name": "price",
          "type": "uint256"
        },
        {
          "indexed": false,
          "internalType": "string",
          "name": "energy",
          "type": "string"
        },
        {
          "indexed": false,
          "internalType": "address payable",
          "name": "buyer",
          "type": "address"
        },
        {
          "indexed": false,
          "internalType": "address payable",
          "name": "seller",
          "type": "address"
        }
      ],
      "name": "ProductSoldToBuyer",
      "type": "event"
    },
    {
      "inputs": [],
      "name": "owner",
      "outputs": [
        {
          "internalType": "address",
          "name": "",
          "type": "address"
        }
      ],
      "stateMutability": "view",
      "type": "function"
    },
    {
      "inputs": [],
      "name": "productCount",
      "outputs": [
        {
          "internalType": "uint256",
          "name": "",
          "type": "uint256"
        }
      ],
      "stateMutability": "view",
      "type": "function"
    },
    {
      "inputs": [],
      "name": "productCount_buyer",
      "outputs": [
        {
          "internalType": "uint256",
          "name": "",
          "type": "uint256"
        }
      ],
      "stateMutability": "view",
      "type": "function"
    },
    {
      "inputs": [
        {
          "internalType": "uint256",
          "name": "",
          "type": "uint256"
        }
      ],
      "name": "products",
      "outputs": [
        {
          "internalType": "uint256",
          "name": "id",
          "type": "uint256"
        },
        {
          "internalType": "uint256",
          "name": "price",
          "type": "uint256"
        },
        {
          "internalType": "string",
          "name": "energy",
          "type": "string"
        },
        {
          "internalType": "address payable",
          "name": "owner",
          "type": "address"
        },
        {
          "internalType": "bool",
          "name": "purchased",
          "type": "bool"
        }
      ],
      "stateMutability": "view",
      "type": "function"
    },
    {
      "inputs": [
        {
          "internalType": "uint256",
          "name": "",
          "type": "uint256"
        }
      ],
      "name": "products_buyer",
      "outputs": [
        {
          "internalType": "uint256",
          "name": "id",
          "type": "uint256"
        },
        {
          "internalType": "uint256",
          "name": "price",
          "type": "uint256"
        },
        {
          "internalType": "string",
          "name": "energy",
          "type": "string"
        },
        {
          "internalType": "address payable",
          "name": "owner",
          "type": "address"
        },
        {
          "internalType": "bool",
          "name": "fulfilled",
          "type": "bool"
        }
      ],
      "stateMutability": "view",
      "type": "function"
    },
    {
      "inputs": [
        {
          "internalType": "uint256",
          "name": "_price",
          "type": "uint256"
        },
        {
          "internalType": "string",
          "name": "_energy",
          "type": "string"
        }
      ],
      "name": "createProduct",
      "outputs": [],
      "stateMutability": "nonpayable",
      "type": "function"
    },
    {
      "inputs": [
        {
          "internalType": "uint256",
          "name": "_price",
          "type": "uint256"
        },
        {
          "internalType": "string",
          "name": "_energy",
          "type": "string"
        }
      ],
      "name": "createProduct_buyer",
      "outputs": [],
      "stateMutability": "nonpayable",
      "type": "function"
    },
    {
      "inputs": [
        {
          "internalType": "uint256",
          "name": "_id",
          "type": "uint256"
        }
      ],
      "name": "purchaseProduct",
      "outputs": [],
      "stateMutability": "payable",
      "type": "function"
    },
    {
      "inputs": [
        {
          "internalType": "uint256",
          "name": "_id",
          "type": "uint256"
        }
      ],
      "name": "sellToBuyerRequest",
      "outputs": [],
      "stateMutability": "payable",
      "type": "function"
    }
  ],
  "bytecode": "0x60806040526000600155600060025534801561001a57600080fd5b50336000806101000a81548173ffffffffffffffffffffffffffffffffffffffff021916908373ffffffffffffffffffffffffffffffffffffffff160217905550611abc8061006a6000396000f3fe6080604052600436106100855760003560e01c80635b53308e116100595780635b53308e14610139578063614627a2146101645780637acc0b20146101805780638da5cb5b146101c1578063e0f6ef87146101ec57610085565b806272d74f1461008a5780630a01841d146100b357806310255e9e146100dc57806338e76a031461011d575b600080fd5b34801561009657600080fd5b506100b160048036038101906100ac91906111aa565b610217565b005b3480156100bf57600080fd5b506100da60048036038101906100d591906111aa565b6103ee565b005b3480156100e857600080fd5b5061010360048036038101906100fe9190611181565b6105c5565b6040516101149594939291906117d8565b60405180910390f35b61013760048036038101906101329190611181565b6106b0565b005b34801561014557600080fd5b5061014e610b38565b60405161015b9190611763565b60405180910390f35b61017e60048036038101906101799190611181565b610b3e565b005b34801561018c57600080fd5b506101a760048036038101906101a29190611181565b610f4c565b6040516101b89594939291906117d8565b60405180910390f35b3480156101cd57600080fd5b506101d6611037565b6040516101e391906115c8565b60405180910390f35b3480156101f857600080fd5b5061020161105b565b60405161020e9190611763565b60405180910390f35b6000821161025a576040517f08c379a0000000000000000000000000000000000000000000000000000000008152600401610251906115e3565b60405180910390fd5b600081511161029e576040517f08c379a000000000000000000000000000000000000000000000000000000000815260040161029590611703565b60405180910390fd5b600260008154809291906102b190611988565b91905055506040518060a0016040528060025481526020018381526020018281526020013373ffffffffffffffffffffffffffffffffffffffff168152602001600015158152506004600060025481526020019081526020016000206000820151816000015560208201518160010155604082015181600201908051906020019061033d929190611061565b5060608201518160030160006101000a81548173ffffffffffffffffffffffffffffffffffffffff021916908373ffffffffffffffffffffffffffffffffffffffff16021790555060808201518160030160146101000a81548160ff0219169083151502179055509050507fb535b120dde0a9ea70c41327c9c7e5fdc43f9b41ca0641774e37befd7eb73da360025483833360006040516103e29594939291906117d8565b60405180910390a15050565b60008211610431576040517f08c379a000000000000000000000000000000000000000000000000000000000815260040161042890611743565b60405180910390fd5b6000815111610475576040517f08c379a000000000000000000000000000000000000000000000000000000000815260040161046c90611703565b60405180910390fd5b6001600081548092919061048890611988565b91905055506040518060a0016040528060015481526020018381526020018281526020013373ffffffffffffffffffffffffffffffffffffffff1681526020016000151581525060036000600154815260200190815260200160002060008201518160000155602082015181600101556040820151816002019080519060200190610514929190611061565b5060608201518160030160006101000a81548173ffffffffffffffffffffffffffffffffffffffff021916908373ffffffffffffffffffffffffffffffffffffffff16021790555060808201518160030160146101000a81548160ff0219169083151502179055509050507fb535b120dde0a9ea70c41327c9c7e5fdc43f9b41ca0641774e37befd7eb73da360015483833360006040516105b99594939291906117d8565b60405180910390a15050565b60046020528060005260406000206000915090508060000154908060010154908060020180546105f490611956565b80601f016020809104026020016040519081016040528092919081815260200182805461062090611956565b801561066d5780601f106106425761010080835404028352916020019161066d565b820191906000526020600020905b81548152906001019060200180831161065057829003601f168201915b5050505050908060030160009054906101000a900473ffffffffffffffffffffffffffffffffffffffff16908060030160149054906101000a900460ff16905085565b6000600360008381526020019081526020016000206040518060a001604052908160008201548152602001600182015481526020016002820180546106f490611956565b80601f016020809104026020016040519081016040528092919081815260200182805461072090611956565b801561076d5780601f106107425761010080835404028352916020019161076d565b820191906000526020600020905b81548152906001019060200180831161075057829003601f168201915b505050505081526020016003820160009054906101000a900473ffffffffffffffffffffffffffffffffffffffff1673ffffffffffffffffffffffffffffffffffffffff1673ffffffffffffffffffffffffffffffffffffffff1681526020016003820160149054906101000a900460ff16151515158152505090506000816060015190506000826000015111801561080c5750600154826000015111155b61084b576040517f08c379a0000000000000000000000000000000000000000000000000000000008152600401610842906116e3565b60405180910390fd5b8160200151341015610892576040517f08c379a000000000000000000000000000000000000000000000000000000000815260040161088990611683565b60405180910390fd5b8160800151156108d7576040517f08c379a00000000000000000000000000000000000000000000000000000000081526004016108ce906116a3565b60405180910390fd5b3373ffffffffffffffffffffffffffffffffffffffff168173ffffffffffffffffffffffffffffffffffffffff161415610946576040517f08c379a000000000000000000000000000000000000000000000000000000000815260040161093d906116c3565b60405180910390fd5b33826060019073ffffffffffffffffffffffffffffffffffffffff16908173ffffffffffffffffffffffffffffffffffffffff168152505060018260800190151590811515815250508160036000858152602001908152602001600020600082015181600001556020820151816001015560408201518160020190805190602001906109d3929190611061565b5060608201518160030160006101000a81548173ffffffffffffffffffffffffffffffffffffffff021916908373ffffffffffffffffffffffffffffffffffffffff16021790555060808201518160030160146101000a81548160ff02191690831515021790555090505060008173ffffffffffffffffffffffffffffffffffffffff1634604051610a64906115b3565b60006040518083038185875af1925050503d8060008114610aa1576040519150601f19603f3d011682016040523d82523d6000602084013e610aa6565b606091505b5050905080610aea576040517f08c379a0000000000000000000000000000000000000000000000000000000008152600401610ae190611603565b60405180910390fd5b7f48c5f08d17b2433fade7b1a3f2f0820b855cd7b162574eb5ea51c3670972f1388484602001518560400151336001604051610b2a9594939291906117d8565b60405180910390a150505050565b60025481565b6000600460008381526020019081526020016000206040518060a00160405290816000820154815260200160018201548152602001600282018054610b8290611956565b80601f0160208091040260200160405190810160405280929190818152602001828054610bae90611956565b8015610bfb5780601f10610bd057610100808354040283529160200191610bfb565b820191906000526020600020905b815481529060010190602001808311610bde57829003601f168201915b505050505081526020016003820160009054906101000a900473ffffffffffffffffffffffffffffffffffffffff1673ffffffffffffffffffffffffffffffffffffffff1673ffffffffffffffffffffffffffffffffffffffff1681526020016003820160149054906101000a900460ff161515151581525050905060008160000151118015610c915750600254816000015111155b610cd0576040517f08c379a0000000000000000000000000000000000000000000000000000000008152600401610cc790611643565b60405180910390fd5b806080015115610d15576040517f08c379a0000000000000000000000000000000000000000000000000000000008152600401610d0c90611623565b60405180910390fd5b3373ffffffffffffffffffffffffffffffffffffffff16816060015173ffffffffffffffffffffffffffffffffffffffff161415610d88576040517f08c379a0000000000000000000000000000000000000000000000000000000008152600401610d7f90611723565b60405180910390fd5b6000816060015173ffffffffffffffffffffffffffffffffffffffff168260200151604051610db6906115b3565b60006040518083038185875af1925050503d8060008114610df3576040519150601f19603f3d011682016040523d82523d6000602084013e610df8565b606091505b5050905080610e3c576040517f08c379a0000000000000000000000000000000000000000000000000000000008152600401610e3390611663565b60405180910390fd5b6001826080019015159081151581525050816004600085815260200190815260200160002060008201518160000155602082015181600101556040820151816002019080519060200190610e91929190611061565b5060608201518160030160006101000a81548173ffffffffffffffffffffffffffffffffffffffff021916908373ffffffffffffffffffffffffffffffffffffffff16021790555060808201518160030160146101000a81548160ff0219169083151502179055509050507f7c152451af1b83119e7126ed89b0df258aae63e0bce24a5734e0f41c5d3a801e8383602001518460400151856060015133604051610f3f95949392919061177e565b60405180910390a1505050565b6003602052806000526040600020600091509050806000015490806001015490806002018054610f7b90611956565b80601f0160208091040260200160405190810160405280929190818152602001828054610fa790611956565b8015610ff45780601f10610fc957610100808354040283529160200191610ff4565b820191906000526020600020905b815481529060010190602001808311610fd757829003601f168201915b5050505050908060030160009054906101000a900473ffffffffffffffffffffffffffffffffffffffff16908060030160149054906101000a900460ff16905085565b60008054906101000a900473ffffffffffffffffffffffffffffffffffffffff1681565b60015481565b82805461106d90611956565b90600052602060002090601f01602090048101928261108f57600085556110d6565b82601f106110a857805160ff19168380011785556110d6565b828001600101855582156110d6579182015b828111156110d55782518255916020019190600101906110ba565b5b5090506110e391906110e7565b5090565b5b808211156111005760008160009055506001016110e8565b5090565b600061111761111284611863565b611832565b90508281526020810184848401111561112f57600080fd5b61113a848285611914565b509392505050565b600082601f83011261115357600080fd5b8135611163848260208601611104565b91505092915050565b60008135905061117b81611a6f565b92915050565b60006020828403121561119357600080fd5b60006111a18482850161116c565b91505092915050565b600080604083850312156111bd57600080fd5b60006111cb8582860161116c565b925050602083013567ffffffffffffffff8111156111e857600080fd5b6111f485828601611142565b9150509250929050565b611207816118cc565b82525050565b611216816118ba565b82525050565b611225816118de565b82525050565b600061123682611893565b61124081856118a9565b9350611250818560208601611923565b61125981611a5e565b840191505092915050565b6000611271601f836118a9565b91507f5072696365206d7573742062652067726561746572207468616e207a65726f006000830152602082019050919050565b60006112b1600f836118a9565b91507f5472616e73666572206661696c656400000000000000000000000000000000006000830152602082019050919050565b60006112f16019836118a9565b91507f5265717565737420616c72656164792066756c66696c6c6564000000000000006000830152602082019050919050565b60006113316018836118a9565b91507f496e76616c6964206275796572207265717565737420494400000000000000006000830152602082019050919050565b6000611371600e836118a9565b91507f5061796d656e74206661696c65640000000000000000000000000000000000006000830152602082019050919050565b60006113b1601f836118a9565b91507f4e6f7420656e6f75676820457468657220746f20636f766572207072696365006000830152602082019050919050565b60006113f16011836118a9565b91507f416c7265616479207075726368617365640000000000000000000000000000006000830152602082019050919050565b6000611431601a836118a9565b91507f42757965722063616e6e6f74206265207468652073656c6c65720000000000006000830152602082019050919050565b600061147160008361189e565b9150600082019050919050565b600061148b6012836118a9565b91507f496e76616c69642070726f6475637420494400000000000000000000000000006000830152602082019050919050565b60006114cb6018836118a9565b91507f456e65726779206d7573742062652073706563696669656400000000000000006000830152602082019050919050565b600061150b601f836118a9565b91507f43616e6e6f742073656c6c20746f20796f7572206f776e2072657175657374006000830152602082019050919050565b600061154b6027836118a9565b91507f50726f64756374207072696365206d757374206265206772656174657220746860008301527f616e207a65726f000000000000000000000000000000000000000000000000006020830152604082019050919050565b6115ad8161190a565b82525050565b60006115be82611464565b9150819050919050565b60006020820190506115dd600083018461120d565b92915050565b600060208201905081810360008301526115fc81611264565b9050919050565b6000602082019050818103600083015261161c816112a4565b9050919050565b6000602082019050818103600083015261163c816112e4565b9050919050565b6000602082019050818103600083015261165c81611324565b9050919050565b6000602082019050818103600083015261167c81611364565b9050919050565b6000602082019050818103600083015261169c816113a4565b9050919050565b600060208201905081810360008301526116bc816113e4565b9050919050565b600060208201905081810360008301526116dc81611424565b9050919050565b600060208201905081810360008301526116fc8161147e565b9050919050565b6000602082019050818103600083015261171c816114be565b9050919050565b6000602082019050818103600083015261173c816114fe565b9050919050565b6000602082019050818103600083015261175c8161153e565b9050919050565b600060208201905061177860008301846115a4565b92915050565b600060a08201905061179360008301886115a4565b6117a060208301876115a4565b81810360408301526117b2818661122b565b90506117c160608301856111fe565b6117ce60808301846111fe565b9695505050505050565b600060a0820190506117ed60008301886115a4565b6117fa60208301876115a4565b818103604083015261180c818661122b565b905061181b60608301856111fe565b611828608083018461121c565b9695505050505050565b6000604051905081810181811067ffffffffffffffff8211171561185957611858611a2f565b5b8060405250919050565b600067ffffffffffffffff82111561187e5761187d611a2f565b5b601f19601f8301169050602081019050919050565b600081519050919050565b600081905092915050565b600082825260208201905092915050565b60006118c5826118ea565b9050919050565b60006118d7826118ea565b9050919050565b60008115159050919050565b600073ffffffffffffffffffffffffffffffffffffffff82169050919050565b6000819050919050565b82818337600083830152505050565b60005b83811015611941578082015181840152602081019050611926565b83811115611950576000848401525b50505050565b6000600282049050600182168061196e57607f821691505b6020821081141561198257611981611a00565b5b50919050565b60006119938261190a565b91507fffffffffffffffffffffffffffffffffffffffffffffffffffffffffffffffff8214156119c6576119c56119d1565b5b600182019050919050565b7f4e487b7100000000000000000000000000000000000000000000000000000000600052601160045260246000fd5b7f4e487b7100000000000000000000000000000000000000000000000000000000600052602260045260246000fd5b7f4e487b7100000000000000000000000000000000000000000000000000000000600052604160045260246000fd5b6000601f19601f8301169050919050565b611a788161190a565b8114611a8357600080fd5b5056fea26469706673582212200d7203d81095f855218c03599aea27a102748149e3a3f339697a1db3c406d28d64736f6c63430008000033",
  "immutableReferences": {},
  "source": "// SPDX-License-Identifier: MIT\r\npragma solidity ^0.8.0;\r\n\r\ncontract Marketplace {\r\n    address public owner;\r\n\r\n    uint public productCount = 0;\r\n    uint public productCount_buyer = 0;\r\n\r\n    mapping(uint => Product) public products;\r\n    mapping(uint => ProductBuyer) public products_buyer;\r\n\r\n    struct Product {\r\n        uint id;\r\n        uint price;\r\n        string energy;\r\n        address payable owner;\r\n        bool purchased;\r\n    }\r\n\r\n    struct ProductBuyer {\r\n        uint id;\r\n        uint price;\r\n        string energy;\r\n        address payable owner;\r\n        bool fulfilled; \r\n    }\r\n\r\n    event ProductCreated(\r\n        uint id,\r\n        uint price,\r\n        string energy,\r\n        address payable owner,\r\n        bool purchased\r\n    );\r\n\r\n    event ProductPurchased(\r\n        uint id,\r\n        uint price,\r\n        string energy,\r\n        address payable owner,\r\n        bool purchased\r\n    );\r\n\r\n    event ProductSoldToBuyer(\r\n        uint id,\r\n        uint price,\r\n        string energy,\r\n        address payable buyer,\r\n        address payable seller\r\n    );\r\n\r\n    constructor() {\r\n        owner = msg.sender;\r\n    }\r\n\r\n    function createProduct(uint _price, string memory _energy) public {\r\n        require(_price > 0, \"Product price must be greater than zero\");\r\n        require(bytes(_energy).length > 0, \"Energy must be specified\");\r\n\r\n        productCount++;\r\n        products[productCount] = Product(productCount, _price, _energy, payable(msg.sender), false);\r\n\r\n        emit ProductCreated(productCount, _price, _energy, payable(msg.sender), false);\r\n    }\r\n\r\n    function createProduct_buyer(uint _price, string memory _energy) public {\r\n        require(_price > 0, \"Price must be greater than zero\");\r\n        require(bytes(_energy).length > 0, \"Energy must be specified\");\r\n\r\n        productCount_buyer++;\r\n        products_buyer[productCount_buyer] = ProductBuyer(productCount_buyer, _price, _energy, payable(msg.sender), false);\r\n\r\n        emit ProductCreated(productCount_buyer, _price, _energy, payable(msg.sender), false);\r\n    }\r\n\r\n    function purchaseProduct(uint _id) public payable {\r\n        Product memory _product = products[_id];\r\n        address payable _seller = _product.owner;\r\n\r\n        require(_product.id > 0 && _product.id <= productCount, \"Invalid product ID\");\r\n        require(msg.value >= _product.price, \"Not enough Ether to cover price\");\r\n        require(!_product.purchased, \"Already purchased\");\r\n        require(_seller != msg.sender, \"Buyer cannot be the seller\");\r\n\r\n        _product.owner = payable(msg.sender);\r\n        _product.purchased = true;\r\n        products[_id] = _product;\r\n\r\n        (bool success, ) = _seller.call{value: msg.value}(\"\");\r\n        require(success, \"Transfer failed\");\r\n\r\n        emit ProductPurchased(_id, _product.price, _product.energy, payable(msg.sender), true);\r\n    }\r\n\r\n    function sellToBuyerRequest(uint _id) public payable{\r\n        ProductBuyer memory _request = products_buyer[_id];\r\n\r\n        require(_request.id > 0 && _request.id <= productCount_buyer, \"Invalid buyer request ID\");\r\n        require(!_request.fulfilled, \"Request already fulfilled\");\r\n        require(_request.owner != msg.sender, \"Cannot sell to your own request\");\r\n\r\n        (bool success, ) = _request.owner.call{value: _request.price}(\"\");\r\n        require(success, \"Payment failed\");\r\n\r\n        _request.fulfilled = true;\r\n        products_buyer[_id] = _request;\r\n\r\n        emit ProductSoldToBuyer(\r\n            _id,\r\n            _request.price,\r\n            _request.energy,\r\n            _request.owner,\r\n            payable(msg.sender)\r\n        );\r\n    }\r\n}\r\n",
  "sourcePath": "C:\\Users\\franf\\OneDrive - Universidad Tcnica Federico Santa Mara\\A 2024-02 TESIS\\Blockchain desarrollo\\Tesis V2\\p2p\\contracts\\Marketplace.sol",
  "compiler": {
    "name": "solc",
    "version": "0.8.0+commit.c7dfd78e.Emscripten.clang"
  },
  "schemaVersion": "3.4.16",
  "updatedAt": "2025-05-06T14:53:40.171Z",
  "devdoc": {
    "kind": "dev",
    "methods": {},
    "version": 1
  },
  "userdoc": {
    "kind": "user",
    "methods": {},
    "version": 1
  }
}