{
  "contractName": "Marketplace",
  "abi": [
    {
      "inputs": [],
      "stateMutability": "nonpayable",
      "type": "constructor"
    },
    {
      "anonymous": false,
      "inputs": [
        {
          "indexed": false,
          "internalType": "uint256",
          "name": "id",
          "type": "uint256"
        },
        {
          "indexed": false,
          "internalType": "uint256",
          "name": "price",
          "type": "uint256"
        },
        {
          "indexed": false,
          "internalType": "string",
          "name": "energy",
          "type": "string"
        },
        {
          "indexed": false,
          "internalType": "address payable",
          "name": "owner",
          "type": "address"
        },
        {
          "indexed": false,
          "internalType": "bool",
          "name": "purchased",
          "type": "bool"
        }
      ],
      "name": "ProductCreated",
      "type": "event"
    },
    {
      "anonymous": false,
      "inputs": [
        {
          "indexed": false,
          "internalType": "uint256",
          "name": "id",
          "type": "uint256"
        },
        {
          "indexed": false,
          "internalType": "uint256",
          "name": "price",
          "type": "uint256"
        },
        {
          "indexed": false,
          "internalType": "string",
          "name": "energy",
          "type": "string"
        },
        {
          "indexed": false,
          "internalType": "address payable",
          "name": "owner",
          "type": "address"
        },
        {
          "indexed": false,
          "internalType": "bool",
          "name": "purchased",
          "type": "bool"
        }
      ],
      "name": "ProductPurchased",
      "type": "event"
    },
    {
      "anonymous": false,
      "inputs": [
        {
          "indexed": false,
          "internalType": "uint256",
          "name": "id",
          "type": "uint256"
        },
        {
          "indexed": false,
          "internalType": "uint256",
          "name": "price",
          "type": "uint256"
        },
        {
          "indexed": false,
          "internalType": "string",
          "name": "energy",
          "type": "string"
        },
        {
          "indexed": false,
          "internalType": "address payable",
          "name": "buyer",
          "type": "address"
        },
        {
          "indexed": false,
          "internalType": "address payable",
          "name": "seller",
          "type": "address"
        }
      ],
      "name": "ProductSoldToBuyer",
      "type": "event"
    },
    {
      "inputs": [],
      "name": "owner",
      "outputs": [
        {
          "internalType": "address",
          "name": "",
          "type": "address"
        }
      ],
      "stateMutability": "view",
      "type": "function"
    },
    {
      "inputs": [],
      "name": "productCount",
      "outputs": [
        {
          "internalType": "uint256",
          "name": "",
          "type": "uint256"
        }
      ],
      "stateMutability": "view",
      "type": "function"
    },
    {
      "inputs": [],
      "name": "productCount_buyer",
      "outputs": [
        {
          "internalType": "uint256",
          "name": "",
          "type": "uint256"
        }
      ],
      "stateMutability": "view",
      "type": "function"
    },
    {
      "inputs": [
        {
          "internalType": "uint256",
          "name": "",
          "type": "uint256"
        }
      ],
      "name": "products",
      "outputs": [
        {
          "internalType": "uint256",
          "name": "id",
          "type": "uint256"
        },
        {
          "internalType": "uint256",
          "name": "price",
          "type": "uint256"
        },
        {
          "internalType": "string",
          "name": "energy",
          "type": "string"
        },
        {
          "internalType": "address payable",
          "name": "owner",
          "type": "address"
        },
        {
          "internalType": "bool",
          "name": "purchased",
          "type": "bool"
        }
      ],
      "stateMutability": "view",
      "type": "function"
    },
    {
      "inputs": [
        {
          "internalType": "uint256",
          "name": "",
          "type": "uint256"
        }
      ],
      "name": "products_buyer",
      "outputs": [
        {
          "internalType": "uint256",
          "name": "id",
          "type": "uint256"
        },
        {
          "internalType": "uint256",
          "name": "price",
          "type": "uint256"
        },
        {
          "internalType": "string",
          "name": "energy",
          "type": "string"
        },
        {
          "internalType": "address payable",
          "name": "owner",
          "type": "address"
        },
        {
          "internalType": "bool",
          "name": "fulfilled",
          "type": "bool"
        }
      ],
      "stateMutability": "view",
      "type": "function"
    },
    {
      "inputs": [],
      "name": "totalTransacciones",
      "outputs": [
        {
          "internalType": "uint256",
          "name": "",
          "type": "uint256"
        }
      ],
      "stateMutability": "view",
      "type": "function"
    },
    {
      "inputs": [
        {
          "internalType": "uint256",
          "name": "",
          "type": "uint256"
        }
      ],
      "name": "transacciones",
      "outputs": [
        {
          "internalType": "uint256",
          "name": "id",
          "type": "uint256"
        },
        {
          "internalType": "uint256",
          "name": "price",
          "type": "uint256"
        },
        {
          "internalType": "string",
          "name": "energy",
          "type": "string"
        },
        {
          "internalType": "address",
          "name": "buyer",
          "type": "address"
        },
        {
          "internalType": "address",
          "name": "seller",
          "type": "address"
        }
      ],
      "stateMutability": "view",
      "type": "function"
    },
    {
      "inputs": [
        {
          "internalType": "uint256",
          "name": "_price",
          "type": "uint256"
        },
        {
          "internalType": "string",
          "name": "_energy",
          "type": "string"
        }
      ],
      "name": "createProduct",
      "outputs": [],
      "stateMutability": "nonpayable",
      "type": "function"
    },
    {
      "inputs": [
        {
          "internalType": "uint256",
          "name": "_price",
          "type": "uint256"
        },
        {
          "internalType": "string",
          "name": "_energy",
          "type": "string"
        }
      ],
      "name": "createProduct_buyer",
      "outputs": [],
      "stateMutability": "nonpayable",
      "type": "function"
    },
    {
      "inputs": [
        {
          "internalType": "uint256",
          "name": "_id",
          "type": "uint256"
        }
      ],
      "name": "purchaseProduct",
      "outputs": [],
      "stateMutability": "payable",
      "type": "function"
    },
    {
      "inputs": [
        {
          "internalType": "uint256",
          "name": "_id",
          "type": "uint256"
        }
      ],
      "name": "sellToBuyerRequest",
      "outputs": [],
      "stateMutability": "payable",
      "type": "function"
    },
    {
      "inputs": [
        {
          "internalType": "uint256",
          "name": "index",
          "type": "uint256"
        }
      ],
      "name": "getTransaccion",
      "outputs": [
        {
          "internalType": "uint256",
          "name": "id",
          "type": "uint256"
        },
        {
          "internalType": "uint256",
          "name": "price",
          "type": "uint256"
        },
        {
          "internalType": "string",
          "name": "energy",
          "type": "string"
        },
        {
          "internalType": "address",
          "name": "buyer",
          "type": "address"
        },
        {
          "internalType": "address",
          "name": "seller",
          "type": "address"
        }
      ],
      "stateMutability": "view",
      "type": "function"
    },
    {
      "inputs": [],
      "name": "getCantidadTransacciones",
      "outputs": [
        {
          "internalType": "uint256",
          "name": "",
          "type": "uint256"
        }
      ],
      "stateMutability": "view",
      "type": "function"
    }
  ],
  "bytecode": "0x608060405260006001556000600255600060065534801561001f57600080fd5b50336000806101000a81548173ffffffffffffffffffffffffffffffffffffffff021916908373ffffffffffffffffffffffffffffffffffffffff1602179055506122948061006f6000396000f3fe6080604052600436106100c15760003560e01c8063614627a21161007f578063782efe6511610059578063782efe65146102695780637acc0b20146102945780638da5cb5b146102d5578063e0f6ef8714610300576100c1565b8063614627a2146101e157806370d551e2146101fd578063732791331461023e576100c1565b806272d74f146100c65780630a01841d146100ef57806310255e9e1461011857806328dc14671461015957806338e76a031461019a5780635b53308e146101b6575b600080fd5b3480156100d257600080fd5b506100ed60048036038101906100e891906118c8565b61032b565b005b3480156100fb57600080fd5b50610116600480360381019061011191906118c8565b610502565b005b34801561012457600080fd5b5061013f600480360381019061013a919061189f565b6106d9565b604051610150959493929190611f56565b60405180910390f35b34801561016557600080fd5b50610180600480360381019061017b919061189f565b6107c4565b604051610191959493929190611fb0565b60405180910390f35b6101b460048036038101906101af919061189f565b6109e6565b005b3480156101c257600080fd5b506101cb610fd1565b6040516101d89190611ee1565b60405180910390f35b6101fb60048036038101906101f6919061189f565b610fd7565b005b34801561020957600080fd5b50610224600480360381019061021f919061189f565b61154c565b604051610235959493929190611fb0565b60405180910390f35b34801561024a57600080fd5b5061025361165a565b6040516102609190611ee1565b60405180910390f35b34801561027557600080fd5b5061027e611664565b60405161028b9190611ee1565b60405180910390f35b3480156102a057600080fd5b506102bb60048036038101906102b6919061189f565b61166a565b6040516102cc959493929190611f56565b60405180910390f35b3480156102e157600080fd5b506102ea611755565b6040516102f79190611d26565b60405180910390f35b34801561030c57600080fd5b50610315611779565b6040516103229190611ee1565b60405180910390f35b6000821161036e576040517f08c379a000000000000000000000000000000000000000000000000000000000815260040161036590611d41565b60405180910390fd5b60008151116103b2576040517f08c379a00000000000000000000000000000000000000000000000000000000081526004016103a990611e81565b60405180910390fd5b600260008154809291906103c590612160565b91905055506040518060a0016040528060025481526020018381526020018281526020013373ffffffffffffffffffffffffffffffffffffffff168152602001600015158152506004600060025481526020019081526020016000206000820151816000015560208201518160010155604082015181600201908051906020019061045192919061177f565b5060608201518160030160006101000a81548173ffffffffffffffffffffffffffffffffffffffff021916908373ffffffffffffffffffffffffffffffffffffffff16021790555060808201518160030160146101000a81548160ff0219169083151502179055509050507fb535b120dde0a9ea70c41327c9c7e5fdc43f9b41ca0641774e37befd7eb73da360025483833360006040516104f6959493929190611f56565b60405180910390a15050565b60008211610545576040517f08c379a000000000000000000000000000000000000000000000000000000000815260040161053c90611ec1565b60405180910390fd5b6000815111610589576040517f08c379a000000000000000000000000000000000000000000000000000000000815260040161058090611e81565b60405180910390fd5b6001600081548092919061059c90612160565b91905055506040518060a0016040528060015481526020018381526020018281526020013373ffffffffffffffffffffffffffffffffffffffff168152602001600015158152506003600060015481526020019081526020016000206000820151816000015560208201518160010155604082015181600201908051906020019061062892919061177f565b5060608201518160030160006101000a81548173ffffffffffffffffffffffffffffffffffffffff021916908373ffffffffffffffffffffffffffffffffffffffff16021790555060808201518160030160146101000a81548160ff0219169083151502179055509050507fb535b120dde0a9ea70c41327c9c7e5fdc43f9b41ca0641774e37befd7eb73da360015483833360006040516106cd959493929190611f56565b60405180910390a15050565b60046020528060005260406000206000915090508060000154908060010154908060020180546107089061212e565b80601f01602080910402602001604051908101604052809291908181526020018280546107349061212e565b80156107815780601f1061075657610100808354040283529160200191610781565b820191906000526020600020905b81548152906001019060200180831161076457829003601f168201915b5050505050908060030160009054906101000a900473ffffffffffffffffffffffffffffffffffffffff16908060030160149054906101000a900460ff16905085565b60008060606000806006548610610810576040517f08c379a000000000000000000000000000000000000000000000000000000000815260040161080790611e41565b60405180910390fd5b60006005878154811061084c577f4e487b7100000000000000000000000000000000000000000000000000000000600052603260045260246000fd5b90600052602060002090600502016040518060a001604052908160008201548152602001600182015481526020016002820180546108899061212e565b80601f01602080910402602001604051908101604052809291908181526020018280546108b59061212e565b80156109025780601f106108d757610100808354040283529160200191610902565b820191906000526020600020905b8154815290600101906020018083116108e557829003601f168201915b505050505081526020016003820160009054906101000a900473ffffffffffffffffffffffffffffffffffffffff1673ffffffffffffffffffffffffffffffffffffffff1673ffffffffffffffffffffffffffffffffffffffff1681526020016004820160009054906101000a900473ffffffffffffffffffffffffffffffffffffffff1673ffffffffffffffffffffffffffffffffffffffff1673ffffffffffffffffffffffffffffffffffffffff1681525050905080600001518160200151826040015183606001518460800151955095509550955095505091939590929450565b6000600360008381526020019081526020016000206040518060a00160405290816000820154815260200160018201548152602001600282018054610a2a9061212e565b80601f0160208091040260200160405190810160405280929190818152602001828054610a569061212e565b8015610aa35780601f10610a7857610100808354040283529160200191610aa3565b820191906000526020600020905b815481529060010190602001808311610a8657829003601f168201915b505050505081526020016003820160009054906101000a900473ffffffffffffffffffffffffffffffffffffffff1673ffffffffffffffffffffffffffffffffffffffff1673ffffffffffffffffffffffffffffffffffffffff1681526020016003820160149054906101000a900460ff161515151581525050905060008160600151905060008260000151118015610b425750600154826000015111155b610b81576040517f08c379a0000000000000000000000000000000000000000000000000000000008152600401610b7890611e61565b60405180910390fd5b8160200151341015610bc8576040517f08c379a0000000000000000000000000000000000000000000000000000000008152600401610bbf90611de1565b60405180910390fd5b816080015115610c0d576040517f08c379a0000000000000000000000000000000000000000000000000000000008152600401610c0490611e01565b60405180910390fd5b3373ffffffffffffffffffffffffffffffffffffffff168173ffffffffffffffffffffffffffffffffffffffff161415610c7c576040517f08c379a0000000000000000000000000000000000000000000000000000000008152600401610c7390611e21565b60405180910390fd5b33826060019073ffffffffffffffffffffffffffffffffffffffff16908173ffffffffffffffffffffffffffffffffffffffff16815250506001826080019015159081151581525050816003600085815260200190815260200160002060008201518160000155602082015181600101556040820151816002019080519060200190610d0992919061177f565b5060608201518160030160006101000a81548173ffffffffffffffffffffffffffffffffffffffff021916908373ffffffffffffffffffffffffffffffffffffffff16021790555060808201518160030160146101000a81548160ff02191690831515021790555090505060008173ffffffffffffffffffffffffffffffffffffffff1634604051610d9a90611d11565b60006040518083038185875af1925050503d8060008114610dd7576040519150601f19603f3d011682016040523d82523d6000602084013e610ddc565b606091505b5050905080610e20576040517f08c379a0000000000000000000000000000000000000000000000000000000008152600401610e1790611d61565b60405180910390fd5b60056040518060a001604052808560000151815260200185602001518152602001856040015181526020013373ffffffffffffffffffffffffffffffffffffffff1681526020018473ffffffffffffffffffffffffffffffffffffffff16815250908060018154018082558091505060019003906000526020600020906005020160009091909190915060008201518160000155602082015181600101556040820151816002019080519060200190610eda92919061177f565b5060608201518160030160006101000a81548173ffffffffffffffffffffffffffffffffffffffff021916908373ffffffffffffffffffffffffffffffffffffffff16021790555060808201518160040160006101000a81548173ffffffffffffffffffffffffffffffffffffffff021916908373ffffffffffffffffffffffffffffffffffffffff160217905550505060066000815480929190610f7e90612160565b91905055507f48c5f08d17b2433fade7b1a3f2f0820b855cd7b162574eb5ea51c3670972f1388484602001518560400151336001604051610fc3959493929190611f56565b60405180910390a150505050565b60025481565b6000600460008381526020019081526020016000206040518060a0016040529081600082015481526020016001820154815260200160028201805461101b9061212e565b80601f01602080910402602001604051908101604052809291908181526020018280546110479061212e565b80156110945780601f1061106957610100808354040283529160200191611094565b820191906000526020600020905b81548152906001019060200180831161107757829003601f168201915b505050505081526020016003820160009054906101000a900473ffffffffffffffffffffffffffffffffffffffff1673ffffffffffffffffffffffffffffffffffffffff1673ffffffffffffffffffffffffffffffffffffffff1681526020016003820160149054906101000a900460ff16151515158152505090506000816000015111801561112a5750600254816000015111155b611169576040517f08c379a000000000000000000000000000000000000000000000000000000000815260040161116090611da1565b60405180910390fd5b8060800151156111ae576040517f08c379a00000000000000000000000000000000000000000000000000000000081526004016111a590611d81565b60405180910390fd5b3373ffffffffffffffffffffffffffffffffffffffff16816060015173ffffffffffffffffffffffffffffffffffffffff161415611221576040517f08c379a000000000000000000000000000000000000000000000000000000000815260040161121890611ea1565b60405180910390fd5b6000816060015173ffffffffffffffffffffffffffffffffffffffff16826020015160405161124f90611d11565b60006040518083038185875af1925050503d806000811461128c576040519150601f19603f3d011682016040523d82523d6000602084013e611291565b606091505b50509050806112d5576040517f08c379a00000000000000000000000000000000000000000000000000000000081526004016112cc90611dc1565b60405180910390fd5b600182608001901515908115158152505081600460008581526020019081526020016000206000820151816000015560208201518160010155604082015181600201908051906020019061132a92919061177f565b5060608201518160030160006101000a81548173ffffffffffffffffffffffffffffffffffffffff021916908373ffffffffffffffffffffffffffffffffffffffff16021790555060808201518160030160146101000a81548160ff02191690831515021790555090505060056040518060a00160405280846000015181526020018460200151815260200184604001518152602001846060015173ffffffffffffffffffffffffffffffffffffffff1681526020013373ffffffffffffffffffffffffffffffffffffffff1681525090806001815401808255809150506001900390600052602060002090600502016000909190919091506000820151816000015560208201518160010155604082015181600201908051906020019061145392919061177f565b5060608201518160030160006101000a81548173ffffffffffffffffffffffffffffffffffffffff021916908373ffffffffffffffffffffffffffffffffffffffff16021790555060808201518160040160006101000a81548173ffffffffffffffffffffffffffffffffffffffff021916908373ffffffffffffffffffffffffffffffffffffffff1602179055505050600660008154809291906114f790612160565b91905055507f7c152451af1b83119e7126ed89b0df258aae63e0bce24a5734e0f41c5d3a801e838360200151846040015185606001513360405161153f959493929190611efc565b60405180910390a1505050565b6005818154811061155c57600080fd5b906000526020600020906005020160009150905080600001549080600101549080600201805461158b9061212e565b80601f01602080910402602001604051908101604052809291908181526020018280546115b79061212e565b80156116045780601f106115d957610100808354040283529160200191611604565b820191906000526020600020905b8154815290600101906020018083116115e757829003601f168201915b5050505050908060030160009054906101000a900473ffffffffffffffffffffffffffffffffffffffff16908060040160009054906101000a900473ffffffffffffffffffffffffffffffffffffffff16905085565b6000600654905090565b60065481565b60036020528060005260406000206000915090508060000154908060010154908060020180546116999061212e565b80601f01602080910402602001604051908101604052809291908181526020018280546116c59061212e565b80156117125780601f106116e757610100808354040283529160200191611712565b820191906000526020600020905b8154815290600101906020018083116116f557829003601f168201915b5050505050908060030160009054906101000a900473ffffffffffffffffffffffffffffffffffffffff16908060030160149054906101000a900460ff16905085565b60008054906101000a900473ffffffffffffffffffffffffffffffffffffffff1681565b60015481565b82805461178b9061212e565b90600052602060002090601f0160209004810192826117ad57600085556117f4565b82601f106117c657805160ff19168380011785556117f4565b828001600101855582156117f4579182015b828111156117f35782518255916020019190600101906117d8565b5b5090506118019190611805565b5090565b5b8082111561181e576000816000905550600101611806565b5090565b60006118356118308461203b565b61200a565b90508281526020810184848401111561184d57600080fd5b6118588482856120ec565b509392505050565b600082601f83011261187157600080fd5b8135611881848260208601611822565b91505092915050565b60008135905061189981612247565b92915050565b6000602082840312156118b157600080fd5b60006118bf8482850161188a565b91505092915050565b600080604083850312156118db57600080fd5b60006118e98582860161188a565b925050602083013567ffffffffffffffff81111561190657600080fd5b61191285828601611860565b9150509250929050565b611925816120a4565b82525050565b61193481612092565b82525050565b611943816120b6565b82525050565b60006119548261206b565b61195e8185612081565b935061196e8185602086016120fb565b61197781612236565b840191505092915050565b600061198f601f83612081565b91507f5072696365206d7573742062652067726561746572207468616e207a65726f006000830152602082019050919050565b60006119cf600f83612081565b91507f5472616e73666572206661696c656400000000000000000000000000000000006000830152602082019050919050565b6000611a0f601983612081565b91507f5265717565737420616c72656164792066756c66696c6c6564000000000000006000830152602082019050919050565b6000611a4f601883612081565b91507f496e76616c6964206275796572207265717565737420494400000000000000006000830152602082019050919050565b6000611a8f600e83612081565b91507f5061796d656e74206661696c65640000000000000000000000000000000000006000830152602082019050919050565b6000611acf601f83612081565b91507f4e6f7420656e6f75676820457468657220746f20636f766572207072696365006000830152602082019050919050565b6000611b0f601183612081565b91507f416c7265616479207075726368617365640000000000000000000000000000006000830152602082019050919050565b6000611b4f601a83612081565b91507f42757965722063616e6e6f74206265207468652073656c6c65720000000000006000830152602082019050919050565b6000611b8f600e83612081565b91507f46756572612064652072616e676f0000000000000000000000000000000000006000830152602082019050919050565b6000611bcf600083612076565b9150600082019050919050565b6000611be9601283612081565b91507f496e76616c69642070726f6475637420494400000000000000000000000000006000830152602082019050919050565b6000611c29601883612081565b91507f456e65726779206d7573742062652073706563696669656400000000000000006000830152602082019050919050565b6000611c69601f83612081565b91507f43616e6e6f742073656c6c20746f20796f7572206f776e2072657175657374006000830152602082019050919050565b6000611ca9602783612081565b91507f50726f64756374207072696365206d757374206265206772656174657220746860008301527f616e207a65726f000000000000000000000000000000000000000000000000006020830152604082019050919050565b611d0b816120e2565b82525050565b6000611d1c82611bc2565b9150819050919050565b6000602082019050611d3b600083018461192b565b92915050565b60006020820190508181036000830152611d5a81611982565b9050919050565b60006020820190508181036000830152611d7a816119c2565b9050919050565b60006020820190508181036000830152611d9a81611a02565b9050919050565b60006020820190508181036000830152611dba81611a42565b9050919050565b60006020820190508181036000830152611dda81611a82565b9050919050565b60006020820190508181036000830152611dfa81611ac2565b9050919050565b60006020820190508181036000830152611e1a81611b02565b9050919050565b60006020820190508181036000830152611e3a81611b42565b9050919050565b60006020820190508181036000830152611e5a81611b82565b9050919050565b60006020820190508181036000830152611e7a81611bdc565b9050919050565b60006020820190508181036000830152611e9a81611c1c565b9050919050565b60006020820190508181036000830152611eba81611c5c565b9050919050565b60006020820190508181036000830152611eda81611c9c565b9050919050565b6000602082019050611ef66000830184611d02565b92915050565b600060a082019050611f116000830188611d02565b611f1e6020830187611d02565b8181036040830152611f308186611949565b9050611f3f606083018561191c565b611f4c608083018461191c565b9695505050505050565b600060a082019050611f6b6000830188611d02565b611f786020830187611d02565b8181036040830152611f8a8186611949565b9050611f99606083018561191c565b611fa6608083018461193a565b9695505050505050565b600060a082019050611fc56000830188611d02565b611fd26020830187611d02565b8181036040830152611fe48186611949565b9050611ff3606083018561192b565b612000608083018461192b565b9695505050505050565b6000604051905081810181811067ffffffffffffffff8211171561203157612030612207565b5b8060405250919050565b600067ffffffffffffffff82111561205657612055612207565b5b601f19601f8301169050602081019050919050565b600081519050919050565b600081905092915050565b600082825260208201905092915050565b600061209d826120c2565b9050919050565b60006120af826120c2565b9050919050565b60008115159050919050565b600073ffffffffffffffffffffffffffffffffffffffff82169050919050565b6000819050919050565b82818337600083830152505050565b60005b838110156121195780820151818401526020810190506120fe565b83811115612128576000848401525b50505050565b6000600282049050600182168061214657607f821691505b6020821081141561215a576121596121d8565b5b50919050565b600061216b826120e2565b91507fffffffffffffffffffffffffffffffffffffffffffffffffffffffffffffffff82141561219e5761219d6121a9565b5b600182019050919050565b7f4e487b7100000000000000000000000000000000000000000000000000000000600052601160045260246000fd5b7f4e487b7100000000000000000000000000000000000000000000000000000000600052602260045260246000fd5b7f4e487b7100000000000000000000000000000000000000000000000000000000600052604160045260246000fd5b6000601f19601f8301169050919050565b612250816120e2565b811461225b57600080fd5b5056fea264697066735822122037f22d1f8c7fe180b631d305c6ad664411dcad5daa5730b434f5015ed0afa66264736f6c63430008000033",
  "immutableReferences": {},
  "source": "// SPDX-License-Identifier: MIT\r\npragma solidity ^0.8.0;\r\n\r\ncontract Marketplace {\r\n    address public owner;\r\n\r\n    uint public productCount = 0;\r\n    uint public productCount_buyer = 0;\r\n\r\n    mapping(uint => Product) public products;\r\n    mapping(uint => ProductBuyer) public products_buyer;\r\n\r\n    struct Product {\r\n        uint id;\r\n        uint price;\r\n        string energy;\r\n        address payable owner;\r\n        bool purchased;\r\n    }\r\n\r\n    struct ProductBuyer {\r\n        uint id;\r\n        uint price;\r\n        string energy;\r\n        address payable owner;\r\n        bool fulfilled; \r\n    }\r\n\r\n    //para obtener las transacciones y realizar el trading\r\n    struct Transaccion {\r\n        uint id;\r\n        uint price;\r\n        string energy;\r\n        address buyer;\r\n        address seller;\r\n    }\r\n\r\n    Transaccion[] public transacciones;\r\n    uint public totalTransacciones = 0;\r\n\r\n    event ProductCreated(\r\n        uint id,\r\n        uint price,\r\n        string energy,\r\n        address payable owner,\r\n        bool purchased\r\n    );\r\n\r\n    event ProductPurchased(\r\n        uint id,\r\n        uint price,\r\n        string energy,\r\n        address payable owner,\r\n        bool purchased\r\n    );\r\n\r\n    event ProductSoldToBuyer(\r\n        uint id,\r\n        uint price,\r\n        string energy,\r\n        address payable buyer,\r\n        address payable seller\r\n    );\r\n\r\n    constructor() {\r\n        owner = msg.sender;\r\n    }\r\n\r\n    function createProduct(uint _price, string memory _energy) public {\r\n        require(_price > 0, \"Product price must be greater than zero\");\r\n        require(bytes(_energy).length > 0, \"Energy must be specified\");\r\n\r\n        productCount++;\r\n        products[productCount] = Product(productCount, _price, _energy, payable(msg.sender), false);\r\n\r\n        emit ProductCreated(productCount, _price, _energy, payable(msg.sender), false);\r\n    }\r\n\r\n    function createProduct_buyer(uint _price, string memory _energy) public {\r\n        require(_price > 0, \"Price must be greater than zero\");\r\n        require(bytes(_energy).length > 0, \"Energy must be specified\");\r\n\r\n        productCount_buyer++;\r\n        products_buyer[productCount_buyer] = ProductBuyer(productCount_buyer, _price, _energy, payable(msg.sender), false);\r\n\r\n        emit ProductCreated(productCount_buyer, _price, _energy, payable(msg.sender), false);\r\n    }\r\n\r\n    function purchaseProduct(uint _id) public payable {\r\n        Product memory _product = products[_id];\r\n        address payable _seller = _product.owner;\r\n\r\n        require(_product.id > 0 && _product.id <= productCount, \"Invalid product ID\");\r\n        require(msg.value >= _product.price, \"Not enough Ether to cover price\");\r\n        require(!_product.purchased, \"Already purchased\");\r\n        require(_seller != msg.sender, \"Buyer cannot be the seller\");\r\n\r\n        _product.owner = payable(msg.sender);\r\n        _product.purchased = true;\r\n        products[_id] = _product;\r\n\r\n        (bool success, ) = _seller.call{value: msg.value}(\"\");\r\n        require(success, \"Transfer failed\");\r\n\r\n        transacciones.push(Transaccion({ //para el registro de las transacciones\r\n            id: _product.id,\r\n            price: _product.price,\r\n            energy: _product.energy,\r\n            buyer: msg.sender,\r\n            seller: _seller\r\n        }));\r\n        totalTransacciones++;\r\n\r\n\r\n        emit ProductPurchased(_id, _product.price, _product.energy, payable(msg.sender), true);\r\n    }\r\n\r\n    function sellToBuyerRequest(uint _id) public payable{\r\n        ProductBuyer memory _request = products_buyer[_id];\r\n\r\n        require(_request.id > 0 && _request.id <= productCount_buyer, \"Invalid buyer request ID\");\r\n        require(!_request.fulfilled, \"Request already fulfilled\");\r\n        require(_request.owner != msg.sender, \"Cannot sell to your own request\");\r\n\r\n        (bool success, ) = _request.owner.call{value: _request.price}(\"\");\r\n        require(success, \"Payment failed\");\r\n\r\n        _request.fulfilled = true;\r\n        products_buyer[_id] = _request;\r\n\r\n        transacciones.push(Transaccion({\r\n            id: _request.id,\r\n            price: _request.price,\r\n            energy: _request.energy,\r\n            buyer: _request.owner,\r\n            seller: msg.sender\r\n        }));\r\n        totalTransacciones++;\r\n\r\n        emit ProductSoldToBuyer(\r\n            _id,\r\n            _request.price,\r\n            _request.energy,\r\n            _request.owner,\r\n            payable(msg.sender)\r\n        );\r\n    }\r\n\r\n    function getTransaccion(uint index) public view returns (\r\n        uint id,\r\n        uint price,\r\n        string memory energy,\r\n        address buyer,\r\n        address seller\r\n    ) {\r\n        require(index < totalTransacciones, \"Fuera de rango\");\r\n        Transaccion memory t = transacciones[index];\r\n        return (t.id, t.price, t.energy, t.buyer, t.seller);\r\n    }\r\n\r\n    function getCantidadTransacciones() public view returns (uint) {\r\n        return totalTransacciones;\r\n    }\r\n\r\n\r\n}\r\n",
  "sourcePath": "C:\\Users\\franf\\OneDrive - Universidad Tcnica Federico Santa Mara\\A 2024-02 TESIS\\Blockchain desarrollo\\Tesis V2\\p2p\\contracts\\Marketplace.sol",
  "compiler": {
    "name": "solc",
    "version": "0.8.0+commit.c7dfd78e.Emscripten.clang"
  },
  "schemaVersion": "3.4.16",
  "updatedAt": "2025-05-23T14:36:07.233Z",
  "devdoc": {
    "kind": "dev",
    "methods": {},
    "version": 1
  },
  "userdoc": {
    "kind": "user",
    "methods": {},
    "version": 1
  }
}