{
  "contractName": "Marketplace",
  "abi": [
    {
      "inputs": [],
      "stateMutability": "nonpayable",
      "type": "constructor"
    },
    {
      "anonymous": false,
      "inputs": [
        {
          "indexed": false,
          "internalType": "uint256",
          "name": "id",
          "type": "uint256"
        },
        {
          "indexed": false,
          "internalType": "string",
          "name": "direction",
          "type": "string"
        }
      ],
      "name": "ProductApproved",
      "type": "event"
    },
    {
      "anonymous": false,
      "inputs": [
        {
          "indexed": false,
          "internalType": "uint256",
          "name": "id",
          "type": "uint256"
        },
        {
          "indexed": false,
          "internalType": "uint256",
          "name": "price",
          "type": "uint256"
        },
        {
          "indexed": false,
          "internalType": "string",
          "name": "energy",
          "type": "string"
        },
        {
          "indexed": false,
          "internalType": "address payable",
          "name": "owner",
          "type": "address"
        },
        {
          "indexed": false,
          "internalType": "bool",
          "name": "purchased",
          "type": "bool"
        }
      ],
      "name": "ProductCreated",
      "type": "event"
    },
    {
      "anonymous": false,
      "inputs": [
        {
          "indexed": false,
          "internalType": "uint256",
          "name": "id",
          "type": "uint256"
        },
        {
          "indexed": false,
          "internalType": "uint256",
          "name": "price",
          "type": "uint256"
        },
        {
          "indexed": false,
          "internalType": "string",
          "name": "energy",
          "type": "string"
        },
        {
          "indexed": false,
          "internalType": "address payable",
          "name": "owner",
          "type": "address"
        },
        {
          "indexed": false,
          "internalType": "bool",
          "name": "purchased",
          "type": "bool"
        }
      ],
      "name": "ProductPurchased",
      "type": "event"
    },
    {
      "anonymous": false,
      "inputs": [
        {
          "indexed": false,
          "internalType": "uint256",
          "name": "id",
          "type": "uint256"
        },
        {
          "indexed": false,
          "internalType": "string",
          "name": "direction",
          "type": "string"
        }
      ],
      "name": "ProductRejected",
      "type": "event"
    },
    {
      "anonymous": false,
      "inputs": [
        {
          "indexed": false,
          "internalType": "uint256",
          "name": "id",
          "type": "uint256"
        },
        {
          "indexed": false,
          "internalType": "uint256",
          "name": "price",
          "type": "uint256"
        },
        {
          "indexed": false,
          "internalType": "string",
          "name": "energy",
          "type": "string"
        },
        {
          "indexed": false,
          "internalType": "address payable",
          "name": "buyer",
          "type": "address"
        },
        {
          "indexed": false,
          "internalType": "address payable",
          "name": "seller",
          "type": "address"
        }
      ],
      "name": "ProductSoldToBuyer",
      "type": "event"
    },
    {
      "inputs": [],
      "name": "coordinator",
      "outputs": [
        {
          "internalType": "address",
          "name": "",
          "type": "address"
        }
      ],
      "stateMutability": "view",
      "type": "function"
    },
    {
      "inputs": [],
      "name": "owner",
      "outputs": [
        {
          "internalType": "address",
          "name": "",
          "type": "address"
        }
      ],
      "stateMutability": "view",
      "type": "function"
    },
    {
      "inputs": [],
      "name": "productCount",
      "outputs": [
        {
          "internalType": "uint256",
          "name": "",
          "type": "uint256"
        }
      ],
      "stateMutability": "view",
      "type": "function"
    },
    {
      "inputs": [],
      "name": "productCount_buyer",
      "outputs": [
        {
          "internalType": "uint256",
          "name": "",
          "type": "uint256"
        }
      ],
      "stateMutability": "view",
      "type": "function"
    },
    {
      "inputs": [
        {
          "internalType": "uint256",
          "name": "",
          "type": "uint256"
        }
      ],
      "name": "products",
      "outputs": [
        {
          "internalType": "uint256",
          "name": "id",
          "type": "uint256"
        },
        {
          "internalType": "uint256",
          "name": "price",
          "type": "uint256"
        },
        {
          "internalType": "string",
          "name": "energy",
          "type": "string"
        },
        {
          "internalType": "address payable",
          "name": "owner",
          "type": "address"
        },
        {
          "internalType": "bool",
          "name": "purchased",
          "type": "bool"
        },
        {
          "internalType": "enum Marketplace.Status",
          "name": "approvalStatus",
          "type": "uint8"
        }
      ],
      "stateMutability": "view",
      "type": "function"
    },
    {
      "inputs": [
        {
          "internalType": "uint256",
          "name": "",
          "type": "uint256"
        }
      ],
      "name": "products_buyer",
      "outputs": [
        {
          "internalType": "uint256",
          "name": "id",
          "type": "uint256"
        },
        {
          "internalType": "uint256",
          "name": "price",
          "type": "uint256"
        },
        {
          "internalType": "string",
          "name": "energy",
          "type": "string"
        },
        {
          "internalType": "address payable",
          "name": "owner",
          "type": "address"
        },
        {
          "internalType": "bool",
          "name": "fulfilled",
          "type": "bool"
        },
        {
          "internalType": "enum Marketplace.Status",
          "name": "approvalStatus",
          "type": "uint8"
        }
      ],
      "stateMutability": "view",
      "type": "function"
    },
    {
      "inputs": [
        {
          "internalType": "address",
          "name": "_coordinator",
          "type": "address"
        }
      ],
      "name": "setCoordinator",
      "outputs": [],
      "stateMutability": "nonpayable",
      "type": "function"
    },
    {
      "inputs": [
        {
          "internalType": "uint256",
          "name": "_price",
          "type": "uint256"
        },
        {
          "internalType": "string",
          "name": "_energy",
          "type": "string"
        }
      ],
      "name": "createProduct",
      "outputs": [],
      "stateMutability": "nonpayable",
      "type": "function"
    },
    {
      "inputs": [
        {
          "internalType": "uint256",
          "name": "_price",
          "type": "uint256"
        },
        {
          "internalType": "string",
          "name": "_energy",
          "type": "string"
        }
      ],
      "name": "createProduct_buyer",
      "outputs": [],
      "stateMutability": "nonpayable",
      "type": "function"
    },
    {
      "inputs": [
        {
          "internalType": "uint256",
          "name": "_id",
          "type": "uint256"
        }
      ],
      "name": "approveProduct",
      "outputs": [],
      "stateMutability": "nonpayable",
      "type": "function"
    },
    {
      "inputs": [
        {
          "internalType": "uint256",
          "name": "_id",
          "type": "uint256"
        }
      ],
      "name": "approveBuyerRequest",
      "outputs": [],
      "stateMutability": "nonpayable",
      "type": "function"
    },
    {
      "inputs": [
        {
          "internalType": "uint256",
          "name": "_id",
          "type": "uint256"
        }
      ],
      "name": "rejectProduct",
      "outputs": [],
      "stateMutability": "nonpayable",
      "type": "function"
    },
    {
      "inputs": [
        {
          "internalType": "uint256",
          "name": "_id",
          "type": "uint256"
        }
      ],
      "name": "rejectBuyerRequest",
      "outputs": [],
      "stateMutability": "nonpayable",
      "type": "function"
    },
    {
      "inputs": [
        {
          "internalType": "uint256",
          "name": "_id",
          "type": "uint256"
        }
      ],
      "name": "purchaseProduct",
      "outputs": [],
      "stateMutability": "payable",
      "type": "function"
    },
    {
      "inputs": [
        {
          "internalType": "uint256",
          "name": "_id",
          "type": "uint256"
        }
      ],
      "name": "sellToBuyerRequest",
      "outputs": [],
      "stateMutability": "payable",
      "type": "function"
    },
    {
      "inputs": [],
      "name": "getPendingProducts",
      "outputs": [
        {
          "components": [
            {
              "internalType": "uint256",
              "name": "id",
              "type": "uint256"
            },
            {
              "internalType": "uint256",
              "name": "price",
              "type": "uint256"
            },
            {
              "internalType": "string",
              "name": "energy",
              "type": "string"
            },
            {
              "internalType": "address payable",
              "name": "owner",
              "type": "address"
            },
            {
              "internalType": "bool",
              "name": "purchased",
              "type": "bool"
            },
            {
              "internalType": "enum Marketplace.Status",
              "name": "approvalStatus",
              "type": "uint8"
            }
          ],
          "internalType": "struct Marketplace.Product[]",
          "name": "",
          "type": "tuple[]"
        }
      ],
      "stateMutability": "view",
      "type": "function"
    },
    {
      "inputs": [],
      "name": "getPendingBuyerRequests",
      "outputs": [
        {
          "components": [
            {
              "internalType": "uint256",
              "name": "id",
              "type": "uint256"
            },
            {
              "internalType": "uint256",
              "name": "price",
              "type": "uint256"
            },
            {
              "internalType": "string",
              "name": "energy",
              "type": "string"
            },
            {
              "internalType": "address payable",
              "name": "owner",
              "type": "address"
            },
            {
              "internalType": "bool",
              "name": "fulfilled",
              "type": "bool"
            },
            {
              "internalType": "enum Marketplace.Status",
              "name": "approvalStatus",
              "type": "uint8"
            }
          ],
          "internalType": "struct Marketplace.ProductBuyer[]",
          "name": "",
          "type": "tuple[]"
        }
      ],
      "stateMutability": "view",
      "type": "function"
    },
    {
      "inputs": [],
      "name": "getApprovedProducts",
      "outputs": [
        {
          "components": [
            {
              "internalType": "uint256",
              "name": "id",
              "type": "uint256"
            },
            {
              "internalType": "uint256",
              "name": "price",
              "type": "uint256"
            },
            {
              "internalType": "string",
              "name": "energy",
              "type": "string"
            },
            {
              "internalType": "address payable",
              "name": "owner",
              "type": "address"
            },
            {
              "internalType": "bool",
              "name": "purchased",
              "type": "bool"
            },
            {
              "internalType": "enum Marketplace.Status",
              "name": "approvalStatus",
              "type": "uint8"
            }
          ],
          "internalType": "struct Marketplace.Product[]",
          "name": "",
          "type": "tuple[]"
        }
      ],
      "stateMutability": "view",
      "type": "function"
    },
    {
      "inputs": [],
      "name": "getApprovedBuyerRequests",
      "outputs": [
        {
          "components": [
            {
              "internalType": "uint256",
              "name": "id",
              "type": "uint256"
            },
            {
              "internalType": "uint256",
              "name": "price",
              "type": "uint256"
            },
            {
              "internalType": "string",
              "name": "energy",
              "type": "string"
            },
            {
              "internalType": "address payable",
              "name": "owner",
              "type": "address"
            },
            {
              "internalType": "bool",
              "name": "fulfilled",
              "type": "bool"
            },
            {
              "internalType": "enum Marketplace.Status",
              "name": "approvalStatus",
              "type": "uint8"
            }
          ],
          "internalType": "struct Marketplace.ProductBuyer[]",
          "name": "",
          "type": "tuple[]"
        }
      ],
      "stateMutability": "view",
      "type": "function"
    }
  ],
  "bytecode": "0x60806040526000600255600060035534801561001a57600080fd5b50336000806101000a81548173ffffffffffffffffffffffffffffffffffffffff021916908373ffffffffffffffffffffffffffffffffffffffff16021790555033600160006101000a81548173ffffffffffffffffffffffffffffffffffffffff021916908373ffffffffffffffffffffffffffffffffffffffff160217905550613d28806100ab6000396000f3fe6080604052600436106101135760003560e01c8063614627a2116100a0578063a16ed41211610064578063a16ed41214610378578063b3db597a146103a3578063c130593c146103ce578063e0f6ef87146103f7578063eb1fc7971461042257610113565b8063614627a21461029d57806368c83b8b146102b95780637acc0b20146102e25780638da5cb5b146103245780638ea981171461034f57610113565b806327d55495116100e757806327d55495146101d757806338e76a031461020057806347e4bb3a1461021c5780634e7d9092146102475780635b53308e1461027257610113565b806272d74f146101185780630a009097146101415780630a01841d1461016c57806310255e9e14610195575b600080fd5b34801561012457600080fd5b5061013f600480360381019061013a9190612c03565b61044b565b005b34801561014d57600080fd5b506101566106b7565b604051610163919061353b565b60405180910390f35b34801561017857600080fd5b50610193600480360381019061018e9190612c03565b6106dd565b005b3480156101a157600080fd5b506101bc60048036038101906101b79190612bda565b610949565b6040516101ce9695949392919061386b565b60405180910390f35b3480156101e357600080fd5b506101fe60048036038101906101f99190612bda565b610a47565b005b61021a60048036038101906102159190612bda565b610bc7565b005b34801561022857600080fd5b50610231610f2c565b60405161023e9190613556565b60405180910390f35b34801561025357600080fd5b5061025c611355565b6040516102699190613578565b60405180910390f35b34801561027e57600080fd5b5061028761177e565b604051610294919061379a565b60405180910390f35b6102b760048036038101906102b29190612bda565b611784565b005b3480156102c557600080fd5b506102e060048036038101906102db9190612bda565b611aa4565b005b3480156102ee57600080fd5b5061030960048036038101906103049190612bda565b611c24565b60405161031b9695949392919061386b565b60405180910390f35b34801561033057600080fd5b50610339611d22565b604051610346919061353b565b60405180910390f35b34801561035b57600080fd5b5061037660048036038101906103719190612bb1565b611d46565b005b34801561038457600080fd5b5061038d611e18565b60405161039a9190613556565b60405180910390f35b3480156103af57600080fd5b506103b8612241565b6040516103c59190613578565b60405180910390f35b3480156103da57600080fd5b506103f560048036038101906103f09190612bda565b61266a565b005b34801561040357600080fd5b5061040c6127ea565b604051610419919061379a565b60405180910390f35b34801561042e57600080fd5b5061044960048036038101906104449190612bda565b6127f0565b005b6000821161048e576040517f08c379a00000000000000000000000000000000000000000000000000000000081526004016104859061359a565b60405180910390fd5b60008151116104d2576040517f08c379a00000000000000000000000000000000000000000000000000000000081526004016104c9906136ba565b60405180910390fd5b600360008154809291906104e590613b9a565b91905055506040518060c0016040528060035481526020018381526020018281526020013373ffffffffffffffffffffffffffffffffffffffff16815260200160001515815260200160006002811115610568577f4e487b7100000000000000000000000000000000000000000000000000000000600052602160045260246000fd5b815250600560006003548152602001908152602001600020600082015181600001556020820151816001015560408201518160020190805190602001906105b0929190612970565b5060608201518160030160006101000a81548173ffffffffffffffffffffffffffffffffffffffff021916908373ffffffffffffffffffffffffffffffffffffffff16021790555060808201518160030160146101000a81548160ff02191690831515021790555060a08201518160030160156101000a81548160ff02191690836002811115610669577f4e487b7100000000000000000000000000000000000000000000000000000000600052602160045260246000fd5b02179055509050507fb535b120dde0a9ea70c41327c9c7e5fdc43f9b41ca0641774e37befd7eb73da360035483833360006040516106ab959493929190613811565b60405180910390a15050565b600160009054906101000a900473ffffffffffffffffffffffffffffffffffffffff1681565b60008211610720576040517f08c379a00000000000000000000000000000000000000000000000000000000081526004016107179061375a565b60405180910390fd5b6000815111610764576040517f08c379a000000000000000000000000000000000000000000000000000000000815260040161075b906136ba565b60405180910390fd5b6002600081548092919061077790613b9a565b91905055506040518060c0016040528060025481526020018381526020018281526020013373ffffffffffffffffffffffffffffffffffffffff168152602001600015158152602001600060028111156107fa577f4e487b7100000000000000000000000000000000000000000000000000000000600052602160045260246000fd5b81525060046000600254815260200190815260200160002060008201518160000155602082015181600101556040820151816002019080519060200190610842929190612970565b5060608201518160030160006101000a81548173ffffffffffffffffffffffffffffffffffffffff021916908373ffffffffffffffffffffffffffffffffffffffff16021790555060808201518160030160146101000a81548160ff02191690831515021790555060a08201518160030160156101000a81548160ff021916908360028111156108fb577f4e487b7100000000000000000000000000000000000000000000000000000000600052602160045260246000fd5b02179055509050507fb535b120dde0a9ea70c41327c9c7e5fdc43f9b41ca0641774e37befd7eb73da3600254838333600060405161093d959493929190613811565b60405180910390a15050565b600560205280600052604060002060009150905080600001549080600101549080600201805461097890613b68565b80601f01602080910402602001604051908101604052809291908181526020018280546109a490613b68565b80156109f15780601f106109c6576101008083540402835291602001916109f1565b820191906000526020600020905b8154815290600101906020018083116109d457829003601f168201915b5050505050908060030160009054906101000a900473ffffffffffffffffffffffffffffffffffffffff16908060030160149054906101000a900460ff16908060030160159054906101000a900460ff16905086565b600160009054906101000a900473ffffffffffffffffffffffffffffffffffffffff1673ffffffffffffffffffffffffffffffffffffffff163373ffffffffffffffffffffffffffffffffffffffff1614610ad7576040517f08c379a0000000000000000000000000000000000000000000000000000000008152600401610ace906135fa565b60405180910390fd5b600081118015610ae957506002548111155b610b28576040517f08c379a0000000000000000000000000000000000000000000000000000000008152600401610b1f9061369a565b60405180910390fd5b60016004600083815260200190815260200160002060030160156101000a81548160ff02191690836002811115610b88577f4e487b7100000000000000000000000000000000000000000000000000000000600052602160045260246000fd5b02179055507f326495fbf6b613f998deaf8f47d94c1741b49d81297ed2fb3bbca2c70f747f4c81604051610bbc91906137e3565b60405180910390a150565b600060046000838152602001908152602001600020905060008160030160009054906101000a900473ffffffffffffffffffffffffffffffffffffffff16905060016002811115610c41577f4e487b7100000000000000000000000000000000000000000000000000000000600052602160045260246000fd5b8260030160159054906101000a900460ff166002811115610c8b577f4e487b7100000000000000000000000000000000000000000000000000000000600052602160045260246000fd5b14610ccb576040517f08c379a0000000000000000000000000000000000000000000000000000000008152600401610cc29061371a565b60405180910390fd5b8160030160149054906101000a900460ff1615610d1d576040517f08c379a0000000000000000000000000000000000000000000000000000000008152600401610d149061365a565b60405180910390fd5b8160010154341015610d64576040517f08c379a0000000000000000000000000000000000000000000000000000000008152600401610d5b906136fa565b60405180910390fd5b3373ffffffffffffffffffffffffffffffffffffffff168173ffffffffffffffffffffffffffffffffffffffff161415610dd3576040517f08c379a0000000000000000000000000000000000000000000000000000000008152600401610dca9061367a565b60405180910390fd5b338260030160006101000a81548173ffffffffffffffffffffffffffffffffffffffff021916908373ffffffffffffffffffffffffffffffffffffffff16021790555060018260030160146101000a81548160ff02191690831515021790555060008173ffffffffffffffffffffffffffffffffffffffff1634604051610e5990613526565b60006040518083038185875af1925050503d8060008114610e96576040519150601f19603f3d011682016040523d82523d6000602084013e610e9b565b606091505b5050905080610edf576040517f08c379a0000000000000000000000000000000000000000000000000000000008152600401610ed6906135ba565b60405180910390fd5b7f48c5f08d17b2433fade7b1a3f2f0820b855cd7b162574eb5ea51c3670972f13884846001015485600201336001604051610f1e95949392919061392d565b60405180910390a150505050565b6060600080600190505b6003548111610ffd5760016002811115610f79577f4e487b7100000000000000000000000000000000000000000000000000000000600052602160045260246000fd5b6005600083815260200190815260200160002060030160159054906101000a900460ff166002811115610fd5577f4e487b7100000000000000000000000000000000000000000000000000000000600052602160045260246000fd5b1415610fea578180610fe690613b9a565b9250505b8080610ff590613b9a565b915050610f36565b5060008167ffffffffffffffff811115611040577f4e487b7100000000000000000000000000000000000000000000000000000000600052604160045260246000fd5b60405190808252806020026020018201604052801561107957816020015b6110666129f6565b81526020019060019003908161105e5790505b509050600080600190505b600354811161134b57600160028111156110c7577f4e487b7100000000000000000000000000000000000000000000000000000000600052602160045260246000fd5b6005600083815260200190815260200160002060030160159054906101000a900460ff166002811115611123577f4e487b7100000000000000000000000000000000000000000000000000000000600052602160045260246000fd5b141561133857600560008281526020019081526020016000206040518060c0016040529081600082015481526020016001820154815260200160028201805461116b90613b68565b80601f016020809104026020016040519081016040528092919081815260200182805461119790613b68565b80156111e45780601f106111b9576101008083540402835291602001916111e4565b820191906000526020600020905b8154815290600101906020018083116111c757829003601f168201915b505050505081526020016003820160009054906101000a900473ffffffffffffffffffffffffffffffffffffffff1673ffffffffffffffffffffffffffffffffffffffff1673ffffffffffffffffffffffffffffffffffffffff1681526020016003820160149054906101000a900460ff161515151581526020016003820160159054906101000a900460ff1660028111156112a9577f4e487b7100000000000000000000000000000000000000000000000000000000600052602160045260246000fd5b60028111156112e1577f4e487b7100000000000000000000000000000000000000000000000000000000600052602160045260246000fd5b8152505083838151811061131e577f4e487b7100000000000000000000000000000000000000000000000000000000600052603260045260246000fd5b6020026020010181905250818061133490613b9a565b9250505b808061134390613b9a565b915050611084565b5081935050505090565b6060600080600190505b600254811161142657600060028111156113a2577f4e487b7100000000000000000000000000000000000000000000000000000000600052602160045260246000fd5b6004600083815260200190815260200160002060030160159054906101000a900460ff1660028111156113fe577f4e487b7100000000000000000000000000000000000000000000000000000000600052602160045260246000fd5b141561141357818061140f90613b9a565b9250505b808061141e90613b9a565b91505061135f565b5060008167ffffffffffffffff811115611469577f4e487b7100000000000000000000000000000000000000000000000000000000600052604160045260246000fd5b6040519080825280602002602001820160405280156114a257816020015b61148f612a7c565b8152602001906001900390816114875790505b509050600080600190505b600254811161177457600060028111156114f0577f4e487b7100000000000000000000000000000000000000000000000000000000600052602160045260246000fd5b6004600083815260200190815260200160002060030160159054906101000a900460ff16600281111561154c577f4e487b7100000000000000000000000000000000000000000000000000000000600052602160045260246000fd5b141561176157600460008281526020019081526020016000206040518060c0016040529081600082015481526020016001820154815260200160028201805461159490613b68565b80601f01602080910402602001604051908101604052809291908181526020018280546115c090613b68565b801561160d5780601f106115e25761010080835404028352916020019161160d565b820191906000526020600020905b8154815290600101906020018083116115f057829003601f168201915b505050505081526020016003820160009054906101000a900473ffffffffffffffffffffffffffffffffffffffff1673ffffffffffffffffffffffffffffffffffffffff1673ffffffffffffffffffffffffffffffffffffffff1681526020016003820160149054906101000a900460ff161515151581526020016003820160159054906101000a900460ff1660028111156116d2577f4e487b7100000000000000000000000000000000000000000000000000000000600052602160045260246000fd5b600281111561170a577f4e487b7100000000000000000000000000000000000000000000000000000000600052602160045260246000fd5b81525050838381518110611747577f4e487b7100000000000000000000000000000000000000000000000000000000600052603260045260246000fd5b6020026020010181905250818061175d90613b9a565b9250505b808061176c90613b9a565b9150506114ad565b5081935050505090565b60035481565b6000600560008381526020019081526020016000209050600160028111156117d5577f4e487b7100000000000000000000000000000000000000000000000000000000600052602160045260246000fd5b8160030160159054906101000a900460ff16600281111561181f577f4e487b7100000000000000000000000000000000000000000000000000000000600052602160045260246000fd5b1461185f576040517f08c379a00000000000000000000000000000000000000000000000000000000081526004016118569061373a565b60405180910390fd5b8060030160149054906101000a900460ff16156118b1576040517f08c379a00000000000000000000000000000000000000000000000000000000081526004016118a8906135da565b60405180910390fd5b3373ffffffffffffffffffffffffffffffffffffffff168160030160009054906101000a900473ffffffffffffffffffffffffffffffffffffffff1673ffffffffffffffffffffffffffffffffffffffff161415611944576040517f08c379a000000000000000000000000000000000000000000000000000000000815260040161193b906136da565b60405180910390fd5b60008160030160009054906101000a900473ffffffffffffffffffffffffffffffffffffffff1673ffffffffffffffffffffffffffffffffffffffff16826001015460405161199290613526565b60006040518083038185875af1925050503d80600081146119cf576040519150601f19603f3d011682016040523d82523d6000602084013e6119d4565b606091505b5050905080611a18576040517f08c379a0000000000000000000000000000000000000000000000000000000008152600401611a0f9061363a565b60405180910390fd5b60018260030160146101000a81548160ff0219169083151502179055507f7c152451af1b83119e7126ed89b0df258aae63e0bce24a5734e0f41c5d3a801e838360010154846002018560030160009054906101000a900473ffffffffffffffffffffffffffffffffffffffff1633604051611a979594939291906138d3565b60405180910390a1505050565b600160009054906101000a900473ffffffffffffffffffffffffffffffffffffffff1673ffffffffffffffffffffffffffffffffffffffff163373ffffffffffffffffffffffffffffffffffffffff1614611b34576040517f08c379a0000000000000000000000000000000000000000000000000000000008152600401611b2b906135fa565b60405180910390fd5b600081118015611b4657506002548111155b611b85576040517f08c379a0000000000000000000000000000000000000000000000000000000008152600401611b7c9061369a565b60405180910390fd5b60026004600083815260200190815260200160002060030160156101000a81548160ff02191690836002811115611be5577f4e487b7100000000000000000000000000000000000000000000000000000000600052602160045260246000fd5b02179055507f4429de7967bfe786ec4ac3f822cf4b26a0ed6a63a7dbbba03684bbf771e93ce381604051611c1991906137e3565b60405180910390a150565b6004602052806000526040600020600091509050806000015490806001015490806002018054611c5390613b68565b80601f0160208091040260200160405190810160405280929190818152602001828054611c7f90613b68565b8015611ccc5780601f10611ca157610100808354040283529160200191611ccc565b820191906000526020600020905b815481529060010190602001808311611caf57829003601f168201915b5050505050908060030160009054906101000a900473ffffffffffffffffffffffffffffffffffffffff16908060030160149054906101000a900460ff16908060030160159054906101000a900460ff16905086565b60008054906101000a900473ffffffffffffffffffffffffffffffffffffffff1681565b60008054906101000a900473ffffffffffffffffffffffffffffffffffffffff1673ffffffffffffffffffffffffffffffffffffffff163373ffffffffffffffffffffffffffffffffffffffff1614611dd4576040517f08c379a0000000000000000000000000000000000000000000000000000000008152600401611dcb9061377a565b60405180910390fd5b80600160006101000a81548173ffffffffffffffffffffffffffffffffffffffff021916908373ffffffffffffffffffffffffffffffffffffffff16021790555050565b6060600080600190505b6003548111611ee95760006002811115611e65577f4e487b7100000000000000000000000000000000000000000000000000000000600052602160045260246000fd5b6005600083815260200190815260200160002060030160159054906101000a900460ff166002811115611ec1577f4e487b7100000000000000000000000000000000000000000000000000000000600052602160045260246000fd5b1415611ed6578180611ed290613b9a565b9250505b8080611ee190613b9a565b915050611e22565b5060008167ffffffffffffffff811115611f2c577f4e487b7100000000000000000000000000000000000000000000000000000000600052604160045260246000fd5b604051908082528060200260200182016040528015611f6557816020015b611f526129f6565b815260200190600190039081611f4a5790505b509050600080600190505b60035481116122375760006002811115611fb3577f4e487b7100000000000000000000000000000000000000000000000000000000600052602160045260246000fd5b6005600083815260200190815260200160002060030160159054906101000a900460ff16600281111561200f577f4e487b7100000000000000000000000000000000000000000000000000000000600052602160045260246000fd5b141561222457600560008281526020019081526020016000206040518060c0016040529081600082015481526020016001820154815260200160028201805461205790613b68565b80601f016020809104026020016040519081016040528092919081815260200182805461208390613b68565b80156120d05780601f106120a5576101008083540402835291602001916120d0565b820191906000526020600020905b8154815290600101906020018083116120b357829003601f168201915b505050505081526020016003820160009054906101000a900473ffffffffffffffffffffffffffffffffffffffff1673ffffffffffffffffffffffffffffffffffffffff1673ffffffffffffffffffffffffffffffffffffffff1681526020016003820160149054906101000a900460ff161515151581526020016003820160159054906101000a900460ff166002811115612195577f4e487b7100000000000000000000000000000000000000000000000000000000600052602160045260246000fd5b60028111156121cd577f4e487b7100000000000000000000000000000000000000000000000000000000600052602160045260246000fd5b8152505083838151811061220a577f4e487b7100000000000000000000000000000000000000000000000000000000600052603260045260246000fd5b6020026020010181905250818061222090613b9a565b9250505b808061222f90613b9a565b915050611f70565b5081935050505090565b6060600080600190505b6002548111612312576001600281111561228e577f4e487b7100000000000000000000000000000000000000000000000000000000600052602160045260246000fd5b6004600083815260200190815260200160002060030160159054906101000a900460ff1660028111156122ea577f4e487b7100000000000000000000000000000000000000000000000000000000600052602160045260246000fd5b14156122ff5781806122fb90613b9a565b9250505b808061230a90613b9a565b91505061224b565b5060008167ffffffffffffffff811115612355577f4e487b7100000000000000000000000000000000000000000000000000000000600052604160045260246000fd5b60405190808252806020026020018201604052801561238e57816020015b61237b612a7c565b8152602001906001900390816123735790505b509050600080600190505b600254811161266057600160028111156123dc577f4e487b7100000000000000000000000000000000000000000000000000000000600052602160045260246000fd5b6004600083815260200190815260200160002060030160159054906101000a900460ff166002811115612438577f4e487b7100000000000000000000000000000000000000000000000000000000600052602160045260246000fd5b141561264d57600460008281526020019081526020016000206040518060c0016040529081600082015481526020016001820154815260200160028201805461248090613b68565b80601f01602080910402602001604051908101604052809291908181526020018280546124ac90613b68565b80156124f95780601f106124ce576101008083540402835291602001916124f9565b820191906000526020600020905b8154815290600101906020018083116124dc57829003601f168201915b505050505081526020016003820160009054906101000a900473ffffffffffffffffffffffffffffffffffffffff1673ffffffffffffffffffffffffffffffffffffffff1673ffffffffffffffffffffffffffffffffffffffff1681526020016003820160149054906101000a900460ff161515151581526020016003820160159054906101000a900460ff1660028111156125be577f4e487b7100000000000000000000000000000000000000000000000000000000600052602160045260246000fd5b60028111156125f6577f4e487b7100000000000000000000000000000000000000000000000000000000600052602160045260246000fd5b81525050838381518110612633577f4e487b7100000000000000000000000000000000000000000000000000000000600052603260045260246000fd5b6020026020010181905250818061264990613b9a565b9250505b808061265890613b9a565b915050612399565b5081935050505090565b600160009054906101000a900473ffffffffffffffffffffffffffffffffffffffff1673ffffffffffffffffffffffffffffffffffffffff163373ffffffffffffffffffffffffffffffffffffffff16146126fa576040517f08c379a00000000000000000000000000000000000000000000000000000000081526004016126f1906135fa565b60405180910390fd5b60008111801561270c57506003548111155b61274b576040517f08c379a00000000000000000000000000000000000000000000000000000000081526004016127429061361a565b60405180910390fd5b60016005600083815260200190815260200160002060030160156101000a81548160ff021916908360028111156127ab577f4e487b7100000000000000000000000000000000000000000000000000000000600052602160045260246000fd5b02179055507f326495fbf6b613f998deaf8f47d94c1741b49d81297ed2fb3bbca2c70f747f4c816040516127df91906137b5565b60405180910390a150565b60025481565b600160009054906101000a900473ffffffffffffffffffffffffffffffffffffffff1673ffffffffffffffffffffffffffffffffffffffff163373ffffffffffffffffffffffffffffffffffffffff1614612880576040517f08c379a0000000000000000000000000000000000000000000000000000000008152600401612877906135fa565b60405180910390fd5b60008111801561289257506003548111155b6128d1576040517f08c379a00000000000000000000000000000000000000000000000000000000081526004016128c89061361a565b60405180910390fd5b60026005600083815260200190815260200160002060030160156101000a81548160ff02191690836002811115612931577f4e487b7100000000000000000000000000000000000000000000000000000000600052602160045260246000fd5b02179055507f4429de7967bfe786ec4ac3f822cf4b26a0ed6a63a7dbbba03684bbf771e93ce38160405161296591906137b5565b60405180910390a150565b82805461297c90613b68565b90600052602060002090601f01602090048101928261299e57600085556129e5565b82601f106129b757805160ff19168380011785556129e5565b828001600101855582156129e5579182015b828111156129e45782518255916020019190600101906129c9565b5b5090506129f29190612b02565b5090565b6040518060c00160405280600081526020016000815260200160608152602001600073ffffffffffffffffffffffffffffffffffffffff16815260200160001515815260200160006002811115612a76577f4e487b7100000000000000000000000000000000000000000000000000000000600052602160045260246000fd5b81525090565b6040518060c00160405280600081526020016000815260200160608152602001600073ffffffffffffffffffffffffffffffffffffffff16815260200160001515815260200160006002811115612afc577f4e487b7100000000000000000000000000000000000000000000000000000000600052602160045260246000fd5b81525090565b5b80821115612b1b576000816000905550600101612b03565b5090565b6000612b32612b2d846139b8565b613987565b905082815260208101848484011115612b4a57600080fd5b612b55848285613b26565b509392505050565b600081359050612b6c81613cc4565b92915050565b600082601f830112612b8357600080fd5b8135612b93848260208601612b1f565b91505092915050565b600081359050612bab81613cdb565b92915050565b600060208284031215612bc357600080fd5b6000612bd184828501612b5d565b91505092915050565b600060208284031215612bec57600080fd5b6000612bfa84828501612b9c565b91505092915050565b60008060408385031215612c1657600080fd5b6000612c2485828601612b9c565b925050602083013567ffffffffffffffff811115612c4157600080fd5b612c4d85828601612b72565b9150509250929050565b6000612c6383836133f6565b905092915050565b6000612c77838361347f565b905092915050565b612c8881613ab9565b82525050565b612c9781613ab9565b82525050565b612ca681613aa7565b82525050565b6000612cb782613a1d565b612cc18185613a58565b935083602082028501612cd3856139e8565b8060005b85811015612d0f5784840389528151612cf08582612c57565b9450612cfb83613a3e565b925060208a01995050600181019050612cd7565b50829750879550505050505092915050565b6000612d2c82613a28565b612d368185613a69565b935083602082028501612d48856139f8565b8060005b85811015612d845784840389528151612d658582612c6b565b9450612d7083613a4b565b925060208a01995050600181019050612d4c565b50829750879550505050505092915050565b612d9f81613acb565b82525050565b612dae81613acb565b82525050565b612dbd81613b14565b82525050565b612dcc81613b14565b82525050565b6000612ddd82613a33565b612de78185613a85565b9350612df7818560208601613b35565b612e0081613c9f565b840191505092915050565b6000612e1682613a33565b612e208185613a96565b9350612e30818560208601613b35565b612e3981613c9f565b840191505092915050565b60008154612e5181613b68565b612e5b8186613a96565b94506001821660008114612e765760018114612e8857612ebb565b60ff1983168652602086019350612ebb565b612e9185613a08565b60005b83811015612eb357815481890152600182019150602081019050612e94565b808801955050505b50505092915050565b6000612ed1601f83613a96565b91507f5072696365206d7573742062652067726561746572207468616e207a65726f006000830152602082019050919050565b6000612f11600f83613a96565b91507f5472616e73666572206661696c656400000000000000000000000000000000006000830152602082019050919050565b6000612f51601983613a96565b91507f5265717565737420616c72656164792066756c66696c6c6564000000000000006000830152602082019050919050565b6000612f91602883613a96565b91507f4f6e6c7920636f6f7264696e61746f722063616e20706572666f726d2074686960008301527f7320616374696f6e0000000000000000000000000000000000000000000000006020830152604082019050919050565b6000612ff7601883613a96565b91507f496e76616c6964206275796572207265717565737420494400000000000000006000830152602082019050919050565b6000613037600383613a96565b91507f62757900000000000000000000000000000000000000000000000000000000006000830152602082019050919050565b6000613077600e83613a96565b91507f5061796d656e74206661696c65640000000000000000000000000000000000006000830152602082019050919050565b60006130b7601183613a96565b91507f416c7265616479207075726368617365640000000000000000000000000000006000830152602082019050919050565b60006130f7601a83613a96565b91507f42757965722063616e6e6f74206265207468652073656c6c65720000000000006000830152602082019050919050565b6000613137600083613a7a565b9150600082019050919050565b6000613151601283613a96565b91507f496e76616c69642070726f6475637420494400000000000000000000000000006000830152602082019050919050565b6000613191601883613a96565b91507f456e65726779206d7573742062652073706563696669656400000000000000006000830152602082019050919050565b60006131d1601f83613a96565b91507f43616e6e6f742073656c6c20746f20796f7572206f776e2072657175657374006000830152602082019050919050565b6000613211601083613a96565b91507f4e6f7420656e6f756768204574686572000000000000000000000000000000006000830152602082019050919050565b6000613251602383613a96565b91507f50726f64756374206e6f7420617070726f76656420627920636f6f7264696e6160008301527f746f7200000000000000000000000000000000000000000000000000000000006020830152604082019050919050565b60006132b7601a83613a96565b91507f42757965722072657175657374206e6f7420617070726f7665640000000000006000830152602082019050919050565b60006132f7600483613a96565b91507f73656c6c000000000000000000000000000000000000000000000000000000006000830152602082019050919050565b6000613337602783613a96565b91507f50726f64756374207072696365206d757374206265206772656174657220746860008301527f616e207a65726f000000000000000000000000000000000000000000000000006020830152604082019050919050565b600061339d602283613a96565b91507f4f6e6c79206f776e65722063616e207365742074686520636f6f7264696e617460008301527f6f720000000000000000000000000000000000000000000000000000000000006020830152604082019050919050565b600060c08301600083015161340e6000860182613508565b5060208301516134216020860182613508565b50604083015184820360408601526134398282612dd2565b915050606083015161344e6060860182612c7f565b5060808301516134616080860182612d96565b5060a083015161347460a0860182612db4565b508091505092915050565b600060c0830160008301516134976000860182613508565b5060208301516134aa6020860182613508565b50604083015184820360408601526134c28282612dd2565b91505060608301516134d76060860182612c7f565b5060808301516134ea6080860182612d96565b5060a08301516134fd60a0860182612db4565b508091505092915050565b61351181613b0a565b82525050565b61352081613b0a565b82525050565b60006135318261312a565b9150819050919050565b60006020820190506135506000830184612c9d565b92915050565b600060208201905081810360008301526135708184612cac565b905092915050565b600060208201905081810360008301526135928184612d21565b905092915050565b600060208201905081810360008301526135b381612ec4565b9050919050565b600060208201905081810360008301526135d381612f04565b9050919050565b600060208201905081810360008301526135f381612f44565b9050919050565b6000602082019050818103600083015261361381612f84565b9050919050565b6000602082019050818103600083015261363381612fea565b9050919050565b600060208201905081810360008301526136538161306a565b9050919050565b60006020820190508181036000830152613673816130aa565b9050919050565b60006020820190508181036000830152613693816130ea565b9050919050565b600060208201905081810360008301526136b381613144565b9050919050565b600060208201905081810360008301526136d381613184565b9050919050565b600060208201905081810360008301526136f3816131c4565b9050919050565b6000602082019050818103600083015261371381613204565b9050919050565b6000602082019050818103600083015261373381613244565b9050919050565b60006020820190508181036000830152613753816132aa565b9050919050565b600060208201905081810360008301526137738161332a565b9050919050565b6000602082019050818103600083015261379381613390565b9050919050565b60006020820190506137af6000830184613517565b92915050565b60006040820190506137ca6000830184613517565b81810360208301526137db8161302a565b905092915050565b60006040820190506137f86000830184613517565b8181036020830152613809816132ea565b905092915050565b600060a0820190506138266000830188613517565b6138336020830187613517565b81810360408301526138458186612e0b565b90506138546060830185612c8e565b6138616080830184612da5565b9695505050505050565b600060c0820190506138806000830189613517565b61388d6020830188613517565b818103604083015261389f8187612e0b565b90506138ae6060830186612c8e565b6138bb6080830185612da5565b6138c860a0830184612dc3565b979650505050505050565b600060a0820190506138e86000830188613517565b6138f56020830187613517565b81810360408301526139078186612e44565b90506139166060830185612c8e565b6139236080830184612c8e565b9695505050505050565b600060a0820190506139426000830188613517565b61394f6020830187613517565b81810360408301526139618186612e44565b90506139706060830185612c8e565b61397d6080830184612da5565b9695505050505050565b6000604051905081810181811067ffffffffffffffff821117156139ae576139ad613c70565b5b8060405250919050565b600067ffffffffffffffff8211156139d3576139d2613c70565b5b601f19601f8301169050602081019050919050565b6000819050602082019050919050565b6000819050602082019050919050565b60008190508160005260206000209050919050565b600081519050919050565b600081519050919050565b600081519050919050565b6000602082019050919050565b6000602082019050919050565b600082825260208201905092915050565b600082825260208201905092915050565b600081905092915050565b600082825260208201905092915050565b600082825260208201905092915050565b6000613ab282613aea565b9050919050565b6000613ac482613aea565b9050919050565b60008115159050919050565b6000819050613ae582613cb0565b919050565b600073ffffffffffffffffffffffffffffffffffffffff82169050919050565b6000819050919050565b6000613b1f82613ad7565b9050919050565b82818337600083830152505050565b60005b83811015613b53578082015181840152602081019050613b38565b83811115613b62576000848401525b50505050565b60006002820490506001821680613b8057607f821691505b60208210811415613b9457613b93613c41565b5b50919050565b6000613ba582613b0a565b91507fffffffffffffffffffffffffffffffffffffffffffffffffffffffffffffffff821415613bd857613bd7613be3565b5b600182019050919050565b7f4e487b7100000000000000000000000000000000000000000000000000000000600052601160045260246000fd5b7f4e487b7100000000000000000000000000000000000000000000000000000000600052602160045260246000fd5b7f4e487b7100000000000000000000000000000000000000000000000000000000600052602260045260246000fd5b7f4e487b7100000000000000000000000000000000000000000000000000000000600052604160045260246000fd5b6000601f19601f8301169050919050565b60038110613cc157613cc0613c12565b5b50565b613ccd81613aa7565b8114613cd857600080fd5b50565b613ce481613b0a565b8114613cef57600080fd5b5056fea264697066735822122031ee6fae745da681f2d50ad3bf7346436b691027bcee07a9c8204abf12eeccce64736f6c63430008000033",
  "immutableReferences": {},
  "source": "// SPDX-License-Identifier: MIT\r\npragma solidity ^0.8.0;\r\n\r\ncontract Marketplace {\r\n    address public owner;          // Admin del contrato\r\n    address public coordinator;    // Coordinator autorizado\r\n\r\n    uint public productCount = 0;\r\n    uint public productCount_buyer = 0;\r\n\r\n    mapping(uint => Product) public products;\r\n    mapping(uint => ProductBuyer) public products_buyer;\r\n\r\n    enum Status { Pending, Approved, Rejected }\r\n\r\n    struct Product {\r\n        uint id;\r\n        uint price;\r\n        string energy;\r\n        address payable owner;\r\n        bool purchased;\r\n        Status approvalStatus;\r\n    }\r\n\r\n    struct ProductBuyer {\r\n        uint id;\r\n        uint price;\r\n        string energy;\r\n        address payable owner;\r\n        bool fulfilled;\r\n        Status approvalStatus;\r\n    }\r\n\r\n    event ProductCreated(\r\n        uint id, \r\n        uint price, \r\n        string energy, \r\n        address payable owner, \r\n        bool purchased\r\n    );\r\n\r\n    event ProductApproved(\r\n        uint id, \r\n        string direction\r\n    ); // direction: \"sell\" o \"buy\"\r\n\r\n    event ProductRejected(\r\n        uint id, \r\n        string direction\r\n    );\r\n\r\n    event ProductPurchased(\r\n        uint id, \r\n        uint price, \r\n        string energy, \r\n        address payable owner, \r\n        bool purchased\r\n    );\r\n\r\n    event ProductSoldToBuyer(\r\n        uint id, \r\n        uint price, \r\n        string energy, \r\n        address payable buyer, \r\n        address payable seller\r\n    );\r\n\r\n    constructor() {\r\n        owner = msg.sender;\r\n        coordinator = msg.sender; // El deployer es tambin el coordinador por defecto\r\n    }\r\n\r\n    modifier onlyCoordinator() {\r\n        require(msg.sender == coordinator, \"Only coordinator can perform this action\");\r\n        _;\r\n    }\r\n\r\n    function setCoordinator(address _coordinator) public {\r\n        require(msg.sender == owner, \"Only owner can set the coordinator\");\r\n        coordinator = _coordinator;\r\n    }\r\n\r\n    function createProduct(uint _price, string memory _energy) public {\r\n        require(_price > 0, \"Product price must be greater than zero\");\r\n        require(bytes(_energy).length > 0, \"Energy must be specified\");\r\n\r\n        productCount++;\r\n        products[productCount] = Product(productCount, _price, _energy, payable(msg.sender), false, Status.Pending);\r\n\r\n        emit ProductCreated(productCount, _price, _energy, payable(msg.sender), false);\r\n    }\r\n\r\n    function createProduct_buyer(uint _price, string memory _energy) public {\r\n        require(_price > 0, \"Price must be greater than zero\");\r\n        require(bytes(_energy).length > 0, \"Energy must be specified\");\r\n\r\n        productCount_buyer++;\r\n        products_buyer[productCount_buyer] = ProductBuyer(productCount_buyer, _price, _energy, payable(msg.sender), false, Status.Pending);\r\n\r\n        emit ProductCreated(productCount_buyer, _price, _energy, payable(msg.sender), false);\r\n    }\r\n\r\n    function approveProduct(uint _id) public onlyCoordinator {\r\n        require(_id > 0 && _id <= productCount, \"Invalid product ID\");\r\n        products[_id].approvalStatus = Status.Approved;\r\n        emit ProductApproved(_id, \"sell\");\r\n    }\r\n\r\n    function approveBuyerRequest(uint _id) public onlyCoordinator {\r\n        require(_id > 0 && _id <= productCount_buyer, \"Invalid buyer request ID\");\r\n        products_buyer[_id].approvalStatus = Status.Approved;\r\n        emit ProductApproved(_id, \"buy\");\r\n    }\r\n\r\n    function rejectProduct(uint _id) public onlyCoordinator {\r\n        require(_id > 0 && _id <= productCount, \"Invalid product ID\");\r\n        products[_id].approvalStatus = Status.Rejected;\r\n        emit ProductRejected(_id, \"sell\");\r\n    }\r\n\r\n    function rejectBuyerRequest(uint _id) public onlyCoordinator {\r\n        require(_id > 0 && _id <= productCount_buyer, \"Invalid buyer request ID\");\r\n        products_buyer[_id].approvalStatus = Status.Rejected;\r\n        emit ProductRejected(_id, \"buy\");\r\n    }\r\n\r\n    function purchaseProduct(uint _id) public payable {\r\n        Product storage _product = products[_id];\r\n        address payable _seller = _product.owner;\r\n\r\n        require(_product.approvalStatus == Status.Approved, \"Product not approved by coordinator\");\r\n        require(!_product.purchased, \"Already purchased\");\r\n        require(msg.value >= _product.price, \"Not enough Ether\");\r\n        require(_seller != msg.sender, \"Buyer cannot be the seller\");\r\n\r\n        _product.owner = payable(msg.sender);\r\n        _product.purchased = true;\r\n\r\n        (bool success, ) = _seller.call{value: msg.value}(\"\");\r\n        require(success, \"Transfer failed\");\r\n\r\n        emit ProductPurchased(_id, _product.price, _product.energy, payable(msg.sender), true);\r\n    }\r\n\r\n    function sellToBuyerRequest(uint _id) public payable {\r\n        ProductBuyer storage _request = products_buyer[_id];\r\n\r\n        require(_request.approvalStatus == Status.Approved, \"Buyer request not approved\");\r\n        require(!_request.fulfilled, \"Request already fulfilled\");\r\n        require(_request.owner != msg.sender, \"Cannot sell to your own request\");\r\n\r\n        (bool success, ) = _request.owner.call{value: _request.price}(\"\");\r\n        require(success, \"Payment failed\");\r\n\r\n        _request.fulfilled = true;\r\n\r\n        emit ProductSoldToBuyer(_id, _request.price, _request.energy, _request.owner, payable(msg.sender));\r\n    }\r\n\r\n    function getPendingProducts() public view returns (Product[] memory) {      //productos en venta\r\n        uint pendingCount = 0;\r\n        for (uint i = 1; i <= productCount; i++) {\r\n            if (products[i].approvalStatus == Status.Pending) {\r\n                pendingCount++;\r\n            }\r\n        }\r\n\r\n        Product[] memory pendingProducts = new Product[](pendingCount);\r\n        uint index = 0;\r\n        for (uint i = 1; i <= productCount; i++) {\r\n            if (products[i].approvalStatus == Status.Pending) {\r\n                pendingProducts[index] = products[i];\r\n                index++;\r\n            }\r\n        }\r\n\r\n        return pendingProducts;\r\n    }\r\n\r\n    function getPendingBuyerRequests() public view returns (ProductBuyer[] memory) {\r\n        uint pendingCount = 0;\r\n        for (uint i = 1; i <= productCount_buyer; i++) {\r\n            if (products_buyer[i].approvalStatus == Status.Pending) {\r\n                pendingCount++;\r\n            }\r\n        }\r\n\r\n        ProductBuyer[] memory pendingRequests = new ProductBuyer[](pendingCount);\r\n        uint index = 0;\r\n        for (uint i = 1; i <= productCount_buyer; i++) {\r\n            if (products_buyer[i].approvalStatus == Status.Pending) {\r\n                pendingRequests[index] = products_buyer[i];\r\n                index++;\r\n            }\r\n        }\r\n\r\n        return pendingRequests;\r\n    }\r\n\r\n    //productos aprobados\r\n    function getApprovedProducts() public view returns (Product[] memory) {\r\n        uint approvedCount = 0;\r\n        for (uint i = 1; i <= productCount; i++) {\r\n            if (products[i].approvalStatus == Status.Approved) {\r\n                approvedCount++;\r\n            }\r\n        }\r\n\r\n        Product[] memory approvedProducts = new Product[](approvedCount);\r\n        uint index = 0;\r\n        for (uint i = 1; i <= productCount; i++) {\r\n            if (products[i].approvalStatus == Status.Approved) {\r\n                approvedProducts[index] = products[i];\r\n                index++;\r\n            }\r\n        }\r\n\r\n        return approvedProducts;\r\n    }\r\n\r\n    function getApprovedBuyerRequests() public view returns (ProductBuyer[] memory) {\r\n        uint approvedCount = 0;\r\n        for (uint i = 1; i <= productCount_buyer; i++) {\r\n            if (products_buyer[i].approvalStatus == Status.Approved) {\r\n                approvedCount++;\r\n            }\r\n        }\r\n\r\n        ProductBuyer[] memory approvedRequests = new ProductBuyer[](approvedCount);\r\n        uint index = 0;\r\n        for (uint i = 1; i <= productCount_buyer; i++) {\r\n            if (products_buyer[i].approvalStatus == Status.Approved) {\r\n                approvedRequests[index] = products_buyer[i];\r\n                index++;\r\n            }\r\n        }\r\n\r\n        return approvedRequests;\r\n    }\r\n\r\n\r\n}\r\n",
  "sourcePath": "C:\\Users\\franf\\OneDrive - Universidad Tcnica Federico Santa Mara\\A 2024-02 TESIS\\Blockchain desarrollo\\Tesis V2 Centralized\\p2p\\contracts\\Marketplace.sol",
  "compiler": {
    "name": "solc",
    "version": "0.8.0+commit.c7dfd78e.Emscripten.clang"
  },
  "schemaVersion": "3.4.16",
  "updatedAt": "2025-05-15T21:56:24.521Z",
  "devdoc": {
    "kind": "dev",
    "methods": {},
    "version": 1
  },
  "userdoc": {
    "kind": "user",
    "methods": {},
    "version": 1
  }
}