{
  "contractName": "Marketplace",
  "abi": [
    {
      "inputs": [],
      "stateMutability": "nonpayable",
      "type": "constructor"
    },
    {
      "anonymous": false,
      "inputs": [
        {
          "indexed": false,
          "internalType": "uint256",
          "name": "id",
          "type": "uint256"
        },
        {
          "indexed": false,
          "internalType": "string",
          "name": "direction",
          "type": "string"
        }
      ],
      "name": "ProductApproved",
      "type": "event"
    },
    {
      "anonymous": false,
      "inputs": [
        {
          "indexed": false,
          "internalType": "uint256",
          "name": "id",
          "type": "uint256"
        },
        {
          "indexed": false,
          "internalType": "uint256",
          "name": "price",
          "type": "uint256"
        },
        {
          "indexed": false,
          "internalType": "string",
          "name": "energy",
          "type": "string"
        },
        {
          "indexed": false,
          "internalType": "address payable",
          "name": "owner",
          "type": "address"
        },
        {
          "indexed": false,
          "internalType": "bool",
          "name": "purchased",
          "type": "bool"
        }
      ],
      "name": "ProductCreated",
      "type": "event"
    },
    {
      "anonymous": false,
      "inputs": [
        {
          "indexed": false,
          "internalType": "uint256",
          "name": "id",
          "type": "uint256"
        },
        {
          "indexed": false,
          "internalType": "uint256",
          "name": "price",
          "type": "uint256"
        },
        {
          "indexed": false,
          "internalType": "string",
          "name": "energy",
          "type": "string"
        },
        {
          "indexed": false,
          "internalType": "address payable",
          "name": "owner",
          "type": "address"
        },
        {
          "indexed": false,
          "internalType": "bool",
          "name": "purchased",
          "type": "bool"
        }
      ],
      "name": "ProductPurchased",
      "type": "event"
    },
    {
      "anonymous": false,
      "inputs": [
        {
          "indexed": false,
          "internalType": "uint256",
          "name": "id",
          "type": "uint256"
        },
        {
          "indexed": false,
          "internalType": "string",
          "name": "direction",
          "type": "string"
        }
      ],
      "name": "ProductRejected",
      "type": "event"
    },
    {
      "anonymous": false,
      "inputs": [
        {
          "indexed": false,
          "internalType": "uint256",
          "name": "id",
          "type": "uint256"
        },
        {
          "indexed": false,
          "internalType": "uint256",
          "name": "price",
          "type": "uint256"
        },
        {
          "indexed": false,
          "internalType": "string",
          "name": "energy",
          "type": "string"
        },
        {
          "indexed": false,
          "internalType": "address payable",
          "name": "buyer",
          "type": "address"
        },
        {
          "indexed": false,
          "internalType": "address payable",
          "name": "seller",
          "type": "address"
        }
      ],
      "name": "ProductSoldToBuyer",
      "type": "event"
    },
    {
      "inputs": [],
      "name": "coordinator",
      "outputs": [
        {
          "internalType": "address",
          "name": "",
          "type": "address"
        }
      ],
      "stateMutability": "view",
      "type": "function"
    },
    {
      "inputs": [],
      "name": "owner",
      "outputs": [
        {
          "internalType": "address",
          "name": "",
          "type": "address"
        }
      ],
      "stateMutability": "view",
      "type": "function"
    },
    {
      "inputs": [],
      "name": "productCount",
      "outputs": [
        {
          "internalType": "uint256",
          "name": "",
          "type": "uint256"
        }
      ],
      "stateMutability": "view",
      "type": "function"
    },
    {
      "inputs": [],
      "name": "productCount_buyer",
      "outputs": [
        {
          "internalType": "uint256",
          "name": "",
          "type": "uint256"
        }
      ],
      "stateMutability": "view",
      "type": "function"
    },
    {
      "inputs": [
        {
          "internalType": "uint256",
          "name": "",
          "type": "uint256"
        }
      ],
      "name": "products",
      "outputs": [
        {
          "internalType": "uint256",
          "name": "id",
          "type": "uint256"
        },
        {
          "internalType": "uint256",
          "name": "price",
          "type": "uint256"
        },
        {
          "internalType": "string",
          "name": "energy",
          "type": "string"
        },
        {
          "internalType": "address payable",
          "name": "owner",
          "type": "address"
        },
        {
          "internalType": "bool",
          "name": "purchased",
          "type": "bool"
        },
        {
          "internalType": "enum Marketplace.Status",
          "name": "approvalStatus",
          "type": "uint8"
        }
      ],
      "stateMutability": "view",
      "type": "function"
    },
    {
      "inputs": [
        {
          "internalType": "uint256",
          "name": "",
          "type": "uint256"
        }
      ],
      "name": "products_buyer",
      "outputs": [
        {
          "internalType": "uint256",
          "name": "id",
          "type": "uint256"
        },
        {
          "internalType": "uint256",
          "name": "price",
          "type": "uint256"
        },
        {
          "internalType": "string",
          "name": "energy",
          "type": "string"
        },
        {
          "internalType": "address payable",
          "name": "owner",
          "type": "address"
        },
        {
          "internalType": "bool",
          "name": "fulfilled",
          "type": "bool"
        },
        {
          "internalType": "enum Marketplace.Status",
          "name": "approvalStatus",
          "type": "uint8"
        }
      ],
      "stateMutability": "view",
      "type": "function"
    },
    {
      "inputs": [
        {
          "internalType": "address",
          "name": "_coordinator",
          "type": "address"
        }
      ],
      "name": "setCoordinator",
      "outputs": [],
      "stateMutability": "nonpayable",
      "type": "function"
    },
    {
      "inputs": [
        {
          "internalType": "uint256",
          "name": "_price",
          "type": "uint256"
        },
        {
          "internalType": "string",
          "name": "_energy",
          "type": "string"
        }
      ],
      "name": "createProduct",
      "outputs": [],
      "stateMutability": "nonpayable",
      "type": "function"
    },
    {
      "inputs": [
        {
          "internalType": "uint256",
          "name": "_price",
          "type": "uint256"
        },
        {
          "internalType": "string",
          "name": "_energy",
          "type": "string"
        }
      ],
      "name": "createProduct_buyer",
      "outputs": [],
      "stateMutability": "nonpayable",
      "type": "function"
    },
    {
      "inputs": [
        {
          "internalType": "uint256",
          "name": "_id",
          "type": "uint256"
        }
      ],
      "name": "approveProduct",
      "outputs": [],
      "stateMutability": "nonpayable",
      "type": "function"
    },
    {
      "inputs": [
        {
          "internalType": "uint256",
          "name": "_id",
          "type": "uint256"
        }
      ],
      "name": "approveBuyerRequest",
      "outputs": [],
      "stateMutability": "nonpayable",
      "type": "function"
    },
    {
      "inputs": [
        {
          "internalType": "uint256",
          "name": "_id",
          "type": "uint256"
        }
      ],
      "name": "rejectProduct",
      "outputs": [],
      "stateMutability": "nonpayable",
      "type": "function"
    },
    {
      "inputs": [
        {
          "internalType": "uint256",
          "name": "_id",
          "type": "uint256"
        }
      ],
      "name": "rejectBuyerRequest",
      "outputs": [],
      "stateMutability": "nonpayable",
      "type": "function"
    },
    {
      "inputs": [
        {
          "internalType": "uint256",
          "name": "_id",
          "type": "uint256"
        }
      ],
      "name": "purchaseProduct",
      "outputs": [],
      "stateMutability": "payable",
      "type": "function"
    },
    {
      "inputs": [
        {
          "internalType": "uint256",
          "name": "_id",
          "type": "uint256"
        }
      ],
      "name": "sellToBuyerRequest",
      "outputs": [],
      "stateMutability": "payable",
      "type": "function"
    },
    {
      "inputs": [],
      "name": "getPendingProducts",
      "outputs": [
        {
          "components": [
            {
              "internalType": "uint256",
              "name": "id",
              "type": "uint256"
            },
            {
              "internalType": "uint256",
              "name": "price",
              "type": "uint256"
            },
            {
              "internalType": "string",
              "name": "energy",
              "type": "string"
            },
            {
              "internalType": "address payable",
              "name": "owner",
              "type": "address"
            },
            {
              "internalType": "bool",
              "name": "purchased",
              "type": "bool"
            },
            {
              "internalType": "enum Marketplace.Status",
              "name": "approvalStatus",
              "type": "uint8"
            }
          ],
          "internalType": "struct Marketplace.Product[]",
          "name": "",
          "type": "tuple[]"
        }
      ],
      "stateMutability": "view",
      "type": "function"
    }
  ],
  "bytecode": "0x60806040526000600255600060035534801561001a57600080fd5b50336000806101000a81548173ffffffffffffffffffffffffffffffffffffffff021916908373ffffffffffffffffffffffffffffffffffffffff16021790555033600160006101000a81548173ffffffffffffffffffffffffffffffffffffffff021916908373ffffffffffffffffffffffffffffffffffffffff160217905550612e18806100ab6000396000f3fe6080604052600436106100f25760003560e01c8063614627a21161008a5780638ea98117116100595780638ea9811714610303578063c130593c1461032c578063e0f6ef8714610355578063eb1fc79714610380576100f2565b8063614627a21461025157806368c83b8b1461026d5780637acc0b20146102965780638da5cb5b146102d8576100f2565b806327d55495116100c657806327d55495146101b657806338e76a03146101df5780634e7d9092146101fb5780635b53308e14610226576100f2565b806272d74f146100f75780630a009097146101205780630a01841d1461014b57806310255e9e14610174575b600080fd5b34801561010357600080fd5b5061011e60048036038101906101199190611e60565b6103a9565b005b34801561012c57600080fd5b50610135610615565b6040516101429190612686565b60405180910390f35b34801561015757600080fd5b50610172600480360381019061016d9190611e60565b61063b565b005b34801561018057600080fd5b5061019b60048036038101906101969190611e37565b6108a7565b6040516101ad96959493929190612994565b60405180910390f35b3480156101c257600080fd5b506101dd60048036038101906101d89190611e37565b6109a5565b005b6101f960048036038101906101f49190611e37565b610b25565b005b34801561020757600080fd5b50610210610e8a565b60405161021d91906126a1565b60405180910390f35b34801561023257600080fd5b5061023b6112b3565b60405161024891906128c3565b60405180910390f35b61026b60048036038101906102669190611e37565b6112b9565b005b34801561027957600080fd5b50610294600480360381019061028f9190611e37565b6115d9565b005b3480156102a257600080fd5b506102bd60048036038101906102b89190611e37565b611759565b6040516102cf96959493929190612994565b60405180910390f35b3480156102e457600080fd5b506102ed611857565b6040516102fa9190612686565b60405180910390f35b34801561030f57600080fd5b5061032a60048036038101906103259190611e0e565b61187b565b005b34801561033857600080fd5b50610353600480360381019061034e9190611e37565b61194d565b005b34801561036157600080fd5b5061036a611acd565b60405161037791906128c3565b60405180910390f35b34801561038c57600080fd5b506103a760048036038101906103a29190611e37565b611ad3565b005b600082116103ec576040517f08c379a00000000000000000000000000000000000000000000000000000000081526004016103e3906126c3565b60405180910390fd5b6000815111610430576040517f08c379a0000000000000000000000000000000000000000000000000000000008152600401610427906127e3565b60405180910390fd5b6003600081548092919061044390612c8a565b91905055506040518060c0016040528060035481526020018381526020018281526020013373ffffffffffffffffffffffffffffffffffffffff168152602001600015158152602001600060028111156104c6577f4e487b7100000000000000000000000000000000000000000000000000000000600052602160045260246000fd5b8152506005600060035481526020019081526020016000206000820151816000015560208201518160010155604082015181600201908051906020019061050e929190611c53565b5060608201518160030160006101000a81548173ffffffffffffffffffffffffffffffffffffffff021916908373ffffffffffffffffffffffffffffffffffffffff16021790555060808201518160030160146101000a81548160ff02191690831515021790555060a08201518160030160156101000a81548160ff021916908360028111156105c7577f4e487b7100000000000000000000000000000000000000000000000000000000600052602160045260246000fd5b02179055509050507fb535b120dde0a9ea70c41327c9c7e5fdc43f9b41ca0641774e37befd7eb73da3600354838333600060405161060995949392919061293a565b60405180910390a15050565b600160009054906101000a900473ffffffffffffffffffffffffffffffffffffffff1681565b6000821161067e576040517f08c379a000000000000000000000000000000000000000000000000000000000815260040161067590612883565b60405180910390fd5b60008151116106c2576040517f08c379a00000000000000000000000000000000000000000000000000000000081526004016106b9906127e3565b60405180910390fd5b600260008154809291906106d590612c8a565b91905055506040518060c0016040528060025481526020018381526020018281526020013373ffffffffffffffffffffffffffffffffffffffff16815260200160001515815260200160006002811115610758577f4e487b7100000000000000000000000000000000000000000000000000000000600052602160045260246000fd5b815250600460006002548152602001908152602001600020600082015181600001556020820151816001015560408201518160020190805190602001906107a0929190611c53565b5060608201518160030160006101000a81548173ffffffffffffffffffffffffffffffffffffffff021916908373ffffffffffffffffffffffffffffffffffffffff16021790555060808201518160030160146101000a81548160ff02191690831515021790555060a08201518160030160156101000a81548160ff02191690836002811115610859577f4e487b7100000000000000000000000000000000000000000000000000000000600052602160045260246000fd5b02179055509050507fb535b120dde0a9ea70c41327c9c7e5fdc43f9b41ca0641774e37befd7eb73da3600254838333600060405161089b95949392919061293a565b60405180910390a15050565b60056020528060005260406000206000915090508060000154908060010154908060020180546108d690612c58565b80601f016020809104026020016040519081016040528092919081815260200182805461090290612c58565b801561094f5780601f106109245761010080835404028352916020019161094f565b820191906000526020600020905b81548152906001019060200180831161093257829003601f168201915b5050505050908060030160009054906101000a900473ffffffffffffffffffffffffffffffffffffffff16908060030160149054906101000a900460ff16908060030160159054906101000a900460ff16905086565b600160009054906101000a900473ffffffffffffffffffffffffffffffffffffffff1673ffffffffffffffffffffffffffffffffffffffff163373ffffffffffffffffffffffffffffffffffffffff1614610a35576040517f08c379a0000000000000000000000000000000000000000000000000000000008152600401610a2c90612723565b60405180910390fd5b600081118015610a4757506002548111155b610a86576040517f08c379a0000000000000000000000000000000000000000000000000000000008152600401610a7d906127c3565b60405180910390fd5b60016004600083815260200190815260200160002060030160156101000a81548160ff02191690836002811115610ae6577f4e487b7100000000000000000000000000000000000000000000000000000000600052602160045260246000fd5b02179055507f326495fbf6b613f998deaf8f47d94c1741b49d81297ed2fb3bbca2c70f747f4c81604051610b1a919061290c565b60405180910390a150565b600060046000838152602001908152602001600020905060008160030160009054906101000a900473ffffffffffffffffffffffffffffffffffffffff16905060016002811115610b9f577f4e487b7100000000000000000000000000000000000000000000000000000000600052602160045260246000fd5b8260030160159054906101000a900460ff166002811115610be9577f4e487b7100000000000000000000000000000000000000000000000000000000600052602160045260246000fd5b14610c29576040517f08c379a0000000000000000000000000000000000000000000000000000000008152600401610c2090612843565b60405180910390fd5b8160030160149054906101000a900460ff1615610c7b576040517f08c379a0000000000000000000000000000000000000000000000000000000008152600401610c7290612783565b60405180910390fd5b8160010154341015610cc2576040517f08c379a0000000000000000000000000000000000000000000000000000000008152600401610cb990612823565b60405180910390fd5b3373ffffffffffffffffffffffffffffffffffffffff168173ffffffffffffffffffffffffffffffffffffffff161415610d31576040517f08c379a0000000000000000000000000000000000000000000000000000000008152600401610d28906127a3565b60405180910390fd5b338260030160006101000a81548173ffffffffffffffffffffffffffffffffffffffff021916908373ffffffffffffffffffffffffffffffffffffffff16021790555060018260030160146101000a81548160ff02191690831515021790555060008173ffffffffffffffffffffffffffffffffffffffff1634604051610db790612671565b60006040518083038185875af1925050503d8060008114610df4576040519150601f19603f3d011682016040523d82523d6000602084013e610df9565b606091505b5050905080610e3d576040517f08c379a0000000000000000000000000000000000000000000000000000000008152600401610e34906126e3565b60405180910390fd5b7f48c5f08d17b2433fade7b1a3f2f0820b855cd7b162574eb5ea51c3670972f13884846001015485600201336001604051610e7c959493929190612a56565b60405180910390a150505050565b6060600080600190505b6002548111610f5b5760006002811115610ed7577f4e487b7100000000000000000000000000000000000000000000000000000000600052602160045260246000fd5b6004600083815260200190815260200160002060030160159054906101000a900460ff166002811115610f33577f4e487b7100000000000000000000000000000000000000000000000000000000600052602160045260246000fd5b1415610f48578180610f4490612c8a565b9250505b8080610f5390612c8a565b915050610e94565b5060008167ffffffffffffffff811115610f9e577f4e487b7100000000000000000000000000000000000000000000000000000000600052604160045260246000fd5b604051908082528060200260200182016040528015610fd757816020015b610fc4611cd9565b815260200190600190039081610fbc5790505b509050600080600190505b60025481116112a95760006002811115611025577f4e487b7100000000000000000000000000000000000000000000000000000000600052602160045260246000fd5b6004600083815260200190815260200160002060030160159054906101000a900460ff166002811115611081577f4e487b7100000000000000000000000000000000000000000000000000000000600052602160045260246000fd5b141561129657600460008281526020019081526020016000206040518060c001604052908160008201548152602001600182015481526020016002820180546110c990612c58565b80601f01602080910402602001604051908101604052809291908181526020018280546110f590612c58565b80156111425780601f1061111757610100808354040283529160200191611142565b820191906000526020600020905b81548152906001019060200180831161112557829003601f168201915b505050505081526020016003820160009054906101000a900473ffffffffffffffffffffffffffffffffffffffff1673ffffffffffffffffffffffffffffffffffffffff1673ffffffffffffffffffffffffffffffffffffffff1681526020016003820160149054906101000a900460ff161515151581526020016003820160159054906101000a900460ff166002811115611207577f4e487b7100000000000000000000000000000000000000000000000000000000600052602160045260246000fd5b600281111561123f577f4e487b7100000000000000000000000000000000000000000000000000000000600052602160045260246000fd5b8152505083838151811061127c577f4e487b7100000000000000000000000000000000000000000000000000000000600052603260045260246000fd5b6020026020010181905250818061129290612c8a565b9250505b80806112a190612c8a565b915050610fe2565b5081935050505090565b60035481565b60006005600083815260200190815260200160002090506001600281111561130a577f4e487b7100000000000000000000000000000000000000000000000000000000600052602160045260246000fd5b8160030160159054906101000a900460ff166002811115611354577f4e487b7100000000000000000000000000000000000000000000000000000000600052602160045260246000fd5b14611394576040517f08c379a000000000000000000000000000000000000000000000000000000000815260040161138b90612863565b60405180910390fd5b8060030160149054906101000a900460ff16156113e6576040517f08c379a00000000000000000000000000000000000000000000000000000000081526004016113dd90612703565b60405180910390fd5b3373ffffffffffffffffffffffffffffffffffffffff168160030160009054906101000a900473ffffffffffffffffffffffffffffffffffffffff1673ffffffffffffffffffffffffffffffffffffffff161415611479576040517f08c379a000000000000000000000000000000000000000000000000000000000815260040161147090612803565b60405180910390fd5b60008160030160009054906101000a900473ffffffffffffffffffffffffffffffffffffffff1673ffffffffffffffffffffffffffffffffffffffff1682600101546040516114c790612671565b60006040518083038185875af1925050503d8060008114611504576040519150601f19603f3d011682016040523d82523d6000602084013e611509565b606091505b505090508061154d576040517f08c379a000000000000000000000000000000000000000000000000000000000815260040161154490612763565b60405180910390fd5b60018260030160146101000a81548160ff0219169083151502179055507f7c152451af1b83119e7126ed89b0df258aae63e0bce24a5734e0f41c5d3a801e838360010154846002018560030160009054906101000a900473ffffffffffffffffffffffffffffffffffffffff16336040516115cc9594939291906129fc565b60405180910390a1505050565b600160009054906101000a900473ffffffffffffffffffffffffffffffffffffffff1673ffffffffffffffffffffffffffffffffffffffff163373ffffffffffffffffffffffffffffffffffffffff1614611669576040517f08c379a000000000000000000000000000000000000000000000000000000000815260040161166090612723565b60405180910390fd5b60008111801561167b57506002548111155b6116ba576040517f08c379a00000000000000000000000000000000000000000000000000000000081526004016116b1906127c3565b60405180910390fd5b60026004600083815260200190815260200160002060030160156101000a81548160ff0219169083600281111561171a577f4e487b7100000000000000000000000000000000000000000000000000000000600052602160045260246000fd5b02179055507f4429de7967bfe786ec4ac3f822cf4b26a0ed6a63a7dbbba03684bbf771e93ce38160405161174e919061290c565b60405180910390a150565b600460205280600052604060002060009150905080600001549080600101549080600201805461178890612c58565b80601f01602080910402602001604051908101604052809291908181526020018280546117b490612c58565b80156118015780601f106117d657610100808354040283529160200191611801565b820191906000526020600020905b8154815290600101906020018083116117e457829003601f168201915b5050505050908060030160009054906101000a900473ffffffffffffffffffffffffffffffffffffffff16908060030160149054906101000a900460ff16908060030160159054906101000a900460ff16905086565b60008054906101000a900473ffffffffffffffffffffffffffffffffffffffff1681565b60008054906101000a900473ffffffffffffffffffffffffffffffffffffffff1673ffffffffffffffffffffffffffffffffffffffff163373ffffffffffffffffffffffffffffffffffffffff1614611909576040517f08c379a0000000000000000000000000000000000000000000000000000000008152600401611900906128a3565b60405180910390fd5b80600160006101000a81548173ffffffffffffffffffffffffffffffffffffffff021916908373ffffffffffffffffffffffffffffffffffffffff16021790555050565b600160009054906101000a900473ffffffffffffffffffffffffffffffffffffffff1673ffffffffffffffffffffffffffffffffffffffff163373ffffffffffffffffffffffffffffffffffffffff16146119dd576040517f08c379a00000000000000000000000000000000000000000000000000000000081526004016119d490612723565b60405180910390fd5b6000811180156119ef57506003548111155b611a2e576040517f08c379a0000000000000000000000000000000000000000000000000000000008152600401611a2590612743565b60405180910390fd5b60016005600083815260200190815260200160002060030160156101000a81548160ff02191690836002811115611a8e577f4e487b7100000000000000000000000000000000000000000000000000000000600052602160045260246000fd5b02179055507f326495fbf6b613f998deaf8f47d94c1741b49d81297ed2fb3bbca2c70f747f4c81604051611ac291906128de565b60405180910390a150565b60025481565b600160009054906101000a900473ffffffffffffffffffffffffffffffffffffffff1673ffffffffffffffffffffffffffffffffffffffff163373ffffffffffffffffffffffffffffffffffffffff1614611b63576040517f08c379a0000000000000000000000000000000000000000000000000000000008152600401611b5a90612723565b60405180910390fd5b600081118015611b7557506003548111155b611bb4576040517f08c379a0000000000000000000000000000000000000000000000000000000008152600401611bab90612743565b60405180910390fd5b60026005600083815260200190815260200160002060030160156101000a81548160ff02191690836002811115611c14577f4e487b7100000000000000000000000000000000000000000000000000000000600052602160045260246000fd5b02179055507f4429de7967bfe786ec4ac3f822cf4b26a0ed6a63a7dbbba03684bbf771e93ce381604051611c4891906128de565b60405180910390a150565b828054611c5f90612c58565b90600052602060002090601f016020900481019282611c815760008555611cc8565b82601f10611c9a57805160ff1916838001178555611cc8565b82800160010185558215611cc8579182015b82811115611cc7578251825591602001919060010190611cac565b5b509050611cd59190611d5f565b5090565b6040518060c00160405280600081526020016000815260200160608152602001600073ffffffffffffffffffffffffffffffffffffffff16815260200160001515815260200160006002811115611d59577f4e487b7100000000000000000000000000000000000000000000000000000000600052602160045260246000fd5b81525090565b5b80821115611d78576000816000905550600101611d60565b5090565b6000611d8f611d8a84612ae1565b612ab0565b905082815260208101848484011115611da757600080fd5b611db2848285612c16565b509392505050565b600081359050611dc981612db4565b92915050565b600082601f830112611de057600080fd5b8135611df0848260208601611d7c565b91505092915050565b600081359050611e0881612dcb565b92915050565b600060208284031215611e2057600080fd5b6000611e2e84828501611dba565b91505092915050565b600060208284031215611e4957600080fd5b6000611e5784828501611df9565b91505092915050565b60008060408385031215611e7357600080fd5b6000611e8185828601611df9565b925050602083013567ffffffffffffffff811115611e9e57600080fd5b611eaa85828601611dcf565b9150509250929050565b6000611ec083836125ca565b905092915050565b611ed181612ba9565b82525050565b611ee081612ba9565b82525050565b611eef81612b97565b82525050565b6000611f0082612b36565b611f0a8185612b59565b935083602082028501611f1c85612b11565b8060005b85811015611f585784840389528151611f398582611eb4565b9450611f4483612b4c565b925060208a01995050600181019050611f20565b50829750879550505050505092915050565b611f7381612bbb565b82525050565b611f8281612bbb565b82525050565b611f9181612c04565b82525050565b611fa081612c04565b82525050565b6000611fb182612b41565b611fbb8185612b75565b9350611fcb818560208601612c25565b611fd481612d8f565b840191505092915050565b6000611fea82612b41565b611ff48185612b86565b9350612004818560208601612c25565b61200d81612d8f565b840191505092915050565b6000815461202581612c58565b61202f8186612b86565b9450600182166000811461204a576001811461205c5761208f565b60ff198316865260208601935061208f565b61206585612b21565b60005b8381101561208757815481890152600182019150602081019050612068565b808801955050505b50505092915050565b60006120a5601f83612b86565b91507f5072696365206d7573742062652067726561746572207468616e207a65726f006000830152602082019050919050565b60006120e5600f83612b86565b91507f5472616e73666572206661696c656400000000000000000000000000000000006000830152602082019050919050565b6000612125601983612b86565b91507f5265717565737420616c72656164792066756c66696c6c6564000000000000006000830152602082019050919050565b6000612165602883612b86565b91507f4f6e6c7920636f6f7264696e61746f722063616e20706572666f726d2074686960008301527f7320616374696f6e0000000000000000000000000000000000000000000000006020830152604082019050919050565b60006121cb601883612b86565b91507f496e76616c6964206275796572207265717565737420494400000000000000006000830152602082019050919050565b600061220b600383612b86565b91507f62757900000000000000000000000000000000000000000000000000000000006000830152602082019050919050565b600061224b600e83612b86565b91507f5061796d656e74206661696c65640000000000000000000000000000000000006000830152602082019050919050565b600061228b601183612b86565b91507f416c7265616479207075726368617365640000000000000000000000000000006000830152602082019050919050565b60006122cb601a83612b86565b91507f42757965722063616e6e6f74206265207468652073656c6c65720000000000006000830152602082019050919050565b600061230b600083612b6a565b9150600082019050919050565b6000612325601283612b86565b91507f496e76616c69642070726f6475637420494400000000000000000000000000006000830152602082019050919050565b6000612365601883612b86565b91507f456e65726779206d7573742062652073706563696669656400000000000000006000830152602082019050919050565b60006123a5601f83612b86565b91507f43616e6e6f742073656c6c20746f20796f7572206f776e2072657175657374006000830152602082019050919050565b60006123e5601083612b86565b91507f4e6f7420656e6f756768204574686572000000000000000000000000000000006000830152602082019050919050565b6000612425602383612b86565b91507f50726f64756374206e6f7420617070726f76656420627920636f6f7264696e6160008301527f746f7200000000000000000000000000000000000000000000000000000000006020830152604082019050919050565b600061248b601a83612b86565b91507f42757965722072657175657374206e6f7420617070726f7665640000000000006000830152602082019050919050565b60006124cb600483612b86565b91507f73656c6c000000000000000000000000000000000000000000000000000000006000830152602082019050919050565b600061250b602783612b86565b91507f50726f64756374207072696365206d757374206265206772656174657220746860008301527f616e207a65726f000000000000000000000000000000000000000000000000006020830152604082019050919050565b6000612571602283612b86565b91507f4f6e6c79206f776e65722063616e207365742074686520636f6f7264696e617460008301527f6f720000000000000000000000000000000000000000000000000000000000006020830152604082019050919050565b600060c0830160008301516125e26000860182612653565b5060208301516125f56020860182612653565b506040830151848203604086015261260d8282611fa6565b91505060608301516126226060860182611ec8565b5060808301516126356080860182611f6a565b5060a083015161264860a0860182611f88565b508091505092915050565b61265c81612bfa565b82525050565b61266b81612bfa565b82525050565b600061267c826122fe565b9150819050919050565b600060208201905061269b6000830184611ee6565b92915050565b600060208201905081810360008301526126bb8184611ef5565b905092915050565b600060208201905081810360008301526126dc81612098565b9050919050565b600060208201905081810360008301526126fc816120d8565b9050919050565b6000602082019050818103600083015261271c81612118565b9050919050565b6000602082019050818103600083015261273c81612158565b9050919050565b6000602082019050818103600083015261275c816121be565b9050919050565b6000602082019050818103600083015261277c8161223e565b9050919050565b6000602082019050818103600083015261279c8161227e565b9050919050565b600060208201905081810360008301526127bc816122be565b9050919050565b600060208201905081810360008301526127dc81612318565b9050919050565b600060208201905081810360008301526127fc81612358565b9050919050565b6000602082019050818103600083015261281c81612398565b9050919050565b6000602082019050818103600083015261283c816123d8565b9050919050565b6000602082019050818103600083015261285c81612418565b9050919050565b6000602082019050818103600083015261287c8161247e565b9050919050565b6000602082019050818103600083015261289c816124fe565b9050919050565b600060208201905081810360008301526128bc81612564565b9050919050565b60006020820190506128d86000830184612662565b92915050565b60006040820190506128f36000830184612662565b8181036020830152612904816121fe565b905092915050565b60006040820190506129216000830184612662565b8181036020830152612932816124be565b905092915050565b600060a08201905061294f6000830188612662565b61295c6020830187612662565b818103604083015261296e8186611fdf565b905061297d6060830185611ed7565b61298a6080830184611f79565b9695505050505050565b600060c0820190506129a96000830189612662565b6129b66020830188612662565b81810360408301526129c88187611fdf565b90506129d76060830186611ed7565b6129e46080830185611f79565b6129f160a0830184611f97565b979650505050505050565b600060a082019050612a116000830188612662565b612a1e6020830187612662565b8181036040830152612a308186612018565b9050612a3f6060830185611ed7565b612a4c6080830184611ed7565b9695505050505050565b600060a082019050612a6b6000830188612662565b612a786020830187612662565b8181036040830152612a8a8186612018565b9050612a996060830185611ed7565b612aa66080830184611f79565b9695505050505050565b6000604051905081810181811067ffffffffffffffff82111715612ad757612ad6612d60565b5b8060405250919050565b600067ffffffffffffffff821115612afc57612afb612d60565b5b601f19601f8301169050602081019050919050565b6000819050602082019050919050565b60008190508160005260206000209050919050565b600081519050919050565b600081519050919050565b6000602082019050919050565b600082825260208201905092915050565b600081905092915050565b600082825260208201905092915050565b600082825260208201905092915050565b6000612ba282612bda565b9050919050565b6000612bb482612bda565b9050919050565b60008115159050919050565b6000819050612bd582612da0565b919050565b600073ffffffffffffffffffffffffffffffffffffffff82169050919050565b6000819050919050565b6000612c0f82612bc7565b9050919050565b82818337600083830152505050565b60005b83811015612c43578082015181840152602081019050612c28565b83811115612c52576000848401525b50505050565b60006002820490506001821680612c7057607f821691505b60208210811415612c8457612c83612d31565b5b50919050565b6000612c9582612bfa565b91507fffffffffffffffffffffffffffffffffffffffffffffffffffffffffffffffff821415612cc857612cc7612cd3565b5b600182019050919050565b7f4e487b7100000000000000000000000000000000000000000000000000000000600052601160045260246000fd5b7f4e487b7100000000000000000000000000000000000000000000000000000000600052602160045260246000fd5b7f4e487b7100000000000000000000000000000000000000000000000000000000600052602260045260246000fd5b7f4e487b7100000000000000000000000000000000000000000000000000000000600052604160045260246000fd5b6000601f19601f8301169050919050565b60038110612db157612db0612d02565b5b50565b612dbd81612b97565b8114612dc857600080fd5b50565b612dd481612bfa565b8114612ddf57600080fd5b5056fea2646970667358221220f9acbbf8a19426640d79ab00a6cafbafb3384ec5064d9e1248e4f1bd4f2c9bd364736f6c63430008000033",
  "immutableReferences": {},
  "source": "// SPDX-License-Identifier: MIT\r\npragma solidity ^0.8.0;\r\n\r\ncontract Marketplace {\r\n    address public owner;          // Admin del contrato\r\n    address public coordinator;    // Coordinator autorizado\r\n\r\n    uint public productCount = 0;\r\n    uint public productCount_buyer = 0;\r\n\r\n    mapping(uint => Product) public products;\r\n    mapping(uint => ProductBuyer) public products_buyer;\r\n\r\n    enum Status { Pending, Approved, Rejected }\r\n\r\n    struct Product {\r\n        uint id;\r\n        uint price;\r\n        string energy;\r\n        address payable owner;\r\n        bool purchased;\r\n        Status approvalStatus;\r\n    }\r\n\r\n    struct ProductBuyer {\r\n        uint id;\r\n        uint price;\r\n        string energy;\r\n        address payable owner;\r\n        bool fulfilled;\r\n        Status approvalStatus;\r\n    }\r\n\r\n    event ProductCreated(\r\n        uint id, \r\n        uint price, \r\n        string energy, \r\n        address payable owner, \r\n        bool purchased\r\n    );\r\n\r\n    event ProductApproved(\r\n        uint id, \r\n        string direction\r\n    ); // direction: \"sell\" o \"buy\"\r\n\r\n    event ProductRejected(\r\n        uint id, \r\n        string direction\r\n    );\r\n\r\n    event ProductPurchased(\r\n        uint id, \r\n        uint price, \r\n        string energy, \r\n        address payable owner, \r\n        bool purchased\r\n    );\r\n\r\n    event ProductSoldToBuyer(\r\n        uint id, \r\n        uint price, \r\n        string energy, \r\n        address payable buyer, \r\n        address payable seller\r\n    );\r\n\r\n    constructor() {\r\n        owner = msg.sender;\r\n        coordinator = msg.sender; // El deployer es tambin el coordinador por defecto\r\n    }\r\n\r\n    modifier onlyCoordinator() {\r\n        require(msg.sender == coordinator, \"Only coordinator can perform this action\");\r\n        _;\r\n    }\r\n\r\n    function setCoordinator(address _coordinator) public {\r\n        require(msg.sender == owner, \"Only owner can set the coordinator\");\r\n        coordinator = _coordinator;\r\n    }\r\n\r\n    function createProduct(uint _price, string memory _energy) public {\r\n        require(_price > 0, \"Product price must be greater than zero\");\r\n        require(bytes(_energy).length > 0, \"Energy must be specified\");\r\n\r\n        productCount++;\r\n        products[productCount] = Product(productCount, _price, _energy, payable(msg.sender), false, Status.Pending);\r\n\r\n        emit ProductCreated(productCount, _price, _energy, payable(msg.sender), false);\r\n    }\r\n\r\n    function createProduct_buyer(uint _price, string memory _energy) public {\r\n        require(_price > 0, \"Price must be greater than zero\");\r\n        require(bytes(_energy).length > 0, \"Energy must be specified\");\r\n\r\n        productCount_buyer++;\r\n        products_buyer[productCount_buyer] = ProductBuyer(productCount_buyer, _price, _energy, payable(msg.sender), false, Status.Pending);\r\n\r\n        emit ProductCreated(productCount_buyer, _price, _energy, payable(msg.sender), false);\r\n    }\r\n\r\n    function approveProduct(uint _id) public onlyCoordinator {\r\n        require(_id > 0 && _id <= productCount, \"Invalid product ID\");\r\n        products[_id].approvalStatus = Status.Approved;\r\n        emit ProductApproved(_id, \"sell\");\r\n    }\r\n\r\n    function approveBuyerRequest(uint _id) public onlyCoordinator {\r\n        require(_id > 0 && _id <= productCount_buyer, \"Invalid buyer request ID\");\r\n        products_buyer[_id].approvalStatus = Status.Approved;\r\n        emit ProductApproved(_id, \"buy\");\r\n    }\r\n\r\n    function rejectProduct(uint _id) public onlyCoordinator {\r\n        require(_id > 0 && _id <= productCount, \"Invalid product ID\");\r\n        products[_id].approvalStatus = Status.Rejected;\r\n        emit ProductRejected(_id, \"sell\");\r\n    }\r\n\r\n    function rejectBuyerRequest(uint _id) public onlyCoordinator {\r\n        require(_id > 0 && _id <= productCount_buyer, \"Invalid buyer request ID\");\r\n        products_buyer[_id].approvalStatus = Status.Rejected;\r\n        emit ProductRejected(_id, \"buy\");\r\n    }\r\n\r\n    function purchaseProduct(uint _id) public payable {\r\n        Product storage _product = products[_id];\r\n        address payable _seller = _product.owner;\r\n\r\n        require(_product.approvalStatus == Status.Approved, \"Product not approved by coordinator\");\r\n        require(!_product.purchased, \"Already purchased\");\r\n        require(msg.value >= _product.price, \"Not enough Ether\");\r\n        require(_seller != msg.sender, \"Buyer cannot be the seller\");\r\n\r\n        _product.owner = payable(msg.sender);\r\n        _product.purchased = true;\r\n\r\n        (bool success, ) = _seller.call{value: msg.value}(\"\");\r\n        require(success, \"Transfer failed\");\r\n\r\n        emit ProductPurchased(_id, _product.price, _product.energy, payable(msg.sender), true);\r\n    }\r\n\r\n    function sellToBuyerRequest(uint _id) public payable {\r\n        ProductBuyer storage _request = products_buyer[_id];\r\n\r\n        require(_request.approvalStatus == Status.Approved, \"Buyer request not approved\");\r\n        require(!_request.fulfilled, \"Request already fulfilled\");\r\n        require(_request.owner != msg.sender, \"Cannot sell to your own request\");\r\n\r\n        (bool success, ) = _request.owner.call{value: _request.price}(\"\");\r\n        require(success, \"Payment failed\");\r\n\r\n        _request.fulfilled = true;\r\n\r\n        emit ProductSoldToBuyer(_id, _request.price, _request.energy, _request.owner, payable(msg.sender));\r\n    }\r\n\r\n    function getPendingProducts() public view returns (Product[] memory) {\r\n        uint pendingCount = 0;\r\n        for (uint i = 1; i <= productCount; i++) {\r\n            if (products[i].approvalStatus == Status.Pending) {\r\n                pendingCount++;\r\n            }\r\n        }\r\n\r\n        Product[] memory pendingProducts = new Product[](pendingCount);\r\n        uint index = 0;\r\n        for (uint i = 1; i <= productCount; i++) {\r\n            if (products[i].approvalStatus == Status.Pending) {\r\n                pendingProducts[index] = products[i];\r\n                index++;\r\n            }\r\n        }\r\n\r\n        return pendingProducts;\r\n    }\r\n}\r\n",
  "sourcePath": "C:\\Users\\franf\\OneDrive - Universidad Tcnica Federico Santa Mara\\A 2024-02 TESIS\\Blockchain desarrollo\\Tesis V2 Centralized\\p2p\\contracts\\Marketplace.sol",
  "compiler": {
    "name": "solc",
    "version": "0.8.0+commit.c7dfd78e.Emscripten.clang"
  },
  "schemaVersion": "3.4.16",
  "updatedAt": "2025-05-15T00:14:33.638Z",
  "devdoc": {
    "kind": "dev",
    "methods": {},
    "version": 1
  },
  "userdoc": {
    "kind": "user",
    "methods": {},
    "version": 1
  }
}